:020000040800F2
:10000000E00E00206D0B0008D10B0008D10B00089A
:10001000D10B0008D10B0008D10B00080000000034
:10002000000000000000000000000000D10B0008EC
:10003000D10B000800000000D10B0008110E0008D1
:100040006D0B00086D0B00086D0B00086D0B0008B0
:100050006D0B00086D0B00086D0B00086D0B0008A0
:100060006D0B00086D0B00086D0B00086D0B000890
:100070006D0B00086D0B00086D0B00086D0B000880
:100080006D0B00086D0B00086D0B00086D0B000870
:100090006D0B00086D0B00086D0B00086D0B000860
:1000A0006D0B00086D0B00086D0B00086D0B000850
:1000B0006D0B00086D0B00086D0B00086D0B000840
:1000C0006D0B00086D0B00086D0B00086D0B000830
:1000D0006D0B0008ED0A00086D0B00086D0B0008A1
:1000E0006D0B00086D0B00086D0B00086D0B000810
:1000F0006D0B000880B586B000AF4FF08050012135
:1001000001F058FA012000F007FB012001F006FA87
:10011000002001F003FA012000F0E2FF00BF4920B7
:1001200001F040FB0346002BF9D04FF4803001F082
:10013000B3F94023FB607F233B61FF237B6107F121
:100140000C03184603F078FD012001F0D7F903F005
:1001500023FE1A4B0022DA70184B00221A70174B3C
:1001600000225A70154B00229A700020134903F0A8
:10017000A9FE07F10803184604F036F803233B7183
:1001800000237B710023BB710123FB713B1D1846CB
:1001900003F026FC002004F089FA042004F042FA5F
:1001A000002004F05FFA4FF48040012104F01EFEAD
:1001B000012004F07BFA1837BD4680BD9C0A002060
:1001C00080B584B000AF78600023FB600020284930
:1001D00003F018FF274B1A68254B9B781846244BD1
:1001E0005B7819460B461B015B1A9B00C118204B1C
:1001F0001B7818464FF4616303FB00F30B441E4960
:1002000041F822301B4B1B68002B2DD1184B1B785B
:100210001846F9687A6802F04DFEF860FB685A1CCF
:10022000FA607A6813443A2283F82120104B5B78F5
:100230001846F9687A6802F03DFEF860FB685A1CBF
:10024000FA607A6813443A2283F82120084B9B789D
:100250001846F9687A6802F02DFEF8607A68FB6843
:100260001344203300225A7000BF1037BD4680BDB2
:100270009C0A0020D8080020C80A002080B582B05F
:1002800000AF78607B68344A934208D10120012195
:1002900001F0AEF90120002101F0AAF959E07B68D4
:1002A0002E4A934208D10220012101F0A1F9022037
:1002B000002101F09DF94CE07B68294A934208D166
:1002C0000420012101F094F90420002101F090F9AB
:1002D0003FE07B68234A934208D10820012101F0C6
:1002E00087F90820002101F083F932E07B681E4A7B
:1002F000934208D11020012101F07AF91020002149
:1003000001F076F925E07B68184A934208D1402035
:10031000012101F06DF94020002101F069F918E098
:100320007B68134A934208D18020012101F060F9D3
:100330008020002101F05CF90BE07B680D4A9342BC
:1003400007D12020012101F053F92020002101F0E4
:100350004FF90837BD4680BD00000240000402404E
:1003600000080240000C0240001002400018024049
:10037000001C02400014024080B487B000AF7860D7
:10038000396000237B6100233B610023FB60002375
:100390007B617CE07B69012202FA03F33B613B68ED
:1003A0001A683B691340FB60FA683B699A426BD15B
:1003B0007B681A687B695B00194603238B40DB432B
:1003C0001A407B681A607B681A683B681B7919467B
:1003D0007B695B0001FA03F31A437B681A603B6890
:1003E0001B79012B03D03B681B79022B34D17B682E
:1003F0009A687B695B00194603238B40DB431A40F4
:100400007B689A607B689A683B685B7919467B6970
:100410005B0001FA03F31A437B689A607B689B8850
:100420009AB27B699BB2194601238B409BB2DB4396
:100430009BB213409AB27B689A807B689B889AB281
:100440003B689B7919467B699BB201FA03F39BB227
:1004500013439AB27B689A807B68DA687B699BB2A7
:100460005B00032101FA03F3DB431A407B68DA6087
:100470007B68DA683B68DB7919467B695B0001FAC7
:1004800003F31A437B68DA607B6901337B617B6924
:100490000F2B7FF67FAF1C37BD465DF8047B70479E
:1004A00080B483B000AF78607B684FF6FF721A604B
:1004B0007B6800221A717B6800225A717B680022D7
:1004C0009A717B680022DA710C37BD465DF8047BB7
:1004D000704700BF80B485B000AF78600B467B806A
:1004E0004FF48033FB607A88FB681343FB60FA6843
:1004F0007B68DA617A887B68DA61FA687B68DA613E
:100500007B68DB69FB607B68DB69FB601437BD4699
:100510005DF8047B704700BF80B485B000AF7860A1
:100520000B467B800023FB737B681B8A9AB27B8817
:1005300013409BB2002B02D00123FB7301E0002388
:10054000FB73FB7B18461437BD465DF8047B704790
:1005500080B483B000AF78607B681B8A9BB218467A
:100560000C37BD465DF8047B704700BF80B485B092
:1005700000AF78600B467B800023FB737B689B8A0F
:100580009AB27B8813409BB2002B02D00123FB73ED
:1005900001E00023FB73FB7B18461437BD465DF872
:1005A000047B704780B483B000AF78607B689B8A1F
:1005B0009BB218460C37BD465DF8047B704700BF00
:1005C00080B483B000AF78600B467B807B687A880C
:1005D0001A830C37BD465DF8047B704780B483B046
:1005E00000AF78600B467B807B687A885A830C3733
:1005F000BD465DF8047B704780B483B000AF78607F
:100600000B467B8013467B707B78002B03D07B6886
:100610007A881A8302E07B687A885A830C37BD4651
:100620005DF8047B704700BF80B483B000AF786092
:100630000B467B807B687A889A820C37BD465DF8D2
:10064000047B704780B483B000AF78600B467B803A
:100650007B689B8A9AB27B8853409AB27B689A8265
:100660000C37BD465DF8047B704700BF80B485B091
:1006700000AF78600B467B8013467B700023FB60E5
:100680000023BB607B787A8802F0070292009340D7
:10069000FB607B88DB089BB218467B88DB089BB23B
:1006A0001A467B68083253F822207B8803F0070340
:1006B0009B0019460F238B40DB4302EA03017B6852
:1006C00000F1080243F822107B88DB089BB21A462F
:1006D0007B68083253F82220FB681343BB607B8899
:1006E000DB089BB21A467B680832B96843F82210CF
:1006F0001437BD465DF8047B704700BF80B500AF7E
:100700004FF08050012100F0AFFF4FF080500021EA
:1007100000F0AAFF80BD00BF80B483B000AF0346E5
:10072000FB71044AFB7913600C37BD465DF8047B0E
:10073000704700BF20000E4280B485B000AF7860E3
:100740000023FB60094B1B68FB60FB6823F0E003A0
:10075000FB60FA687B681343FB60044AFB68136024
:100760001437BD465DF8047B704700BF0070004041
:1007700080B483B000AF0346FB71044AFB79136079
:100780000C37BD465DF8047B704700BF10000E4279
:1007900080B485B000AF78600B46FB700023FB602F
:1007A0007A68064B1344FB60FB681A46FB781360BB
:1007B0001437BD465DF8047B704700BFA0000E42B1
:1007C00080B483B000AF0346FB71044AFB79136029
:1007D0000C37BD465DF8047B704700BF28000E4211
:1007E00080B483B000AF0346FB71044AFB79136009
:1007F0000C37BD465DF8047B704700BF24000E42F5
:1008000080B485B000AF78600023FB600A4B1B68A2
:10081000FB60FB6823F4C053FB60FA687B681343FA
:10082000FB60054AFB6823F00C0313601437BD46D8
:100830005DF8047B704700BF0070004080B483B057
:1008400000AF0346FB71FB79002B0CD00E4A0E4B18
:100850001B6843F0010313600B4A0B4B1B6843F406
:10086000804313600BE0084A074B1B6823F4804366
:100870001360054A044B1B6823F0010313600C3717
:10088000BD465DF8047B70470070004080B485B0C1
:1008900000AF78600B46FB700023FB600F4B1B68BA
:1008A000FB60FB6823F00303FB60FA687B6813437B
:1008B000FB600A4AFB681360094A094B1B6923F075
:1008C00004031361FB78012B01D130BF00E020BF8E
:1008D0001437BD465DF8047B704700BF00700040D0
:1008E00000ED00E080B485B000AF78600B46FB708F
:1008F0000023FB60124B1B68FB60FB6823F00303C3
:10090000FB60FA687B681343FB600D4AFB68136069
:100910000C4A0C4B1B6943F004031361FB78012B59
:1009200001D130BF00E020BF064A064B1B6923F00F
:10093000040313611437BD465DF8047B704700BFA4
:100940000070004000ED00E080B400AF0B4A0B4B9C
:100950001B6843F004031360084A084B1B6843F00C
:1009600002031360064A064B1B6943F0040313613C
:1009700030BFBD465DF8047B704700BF007000408B
:1009800000ED00E080B485B000AF78600023FB7319
:10099000084B5A687B681340002B02D00123FB737D
:1009A00001E00023FB73FB7B18461437BD465DF85E
:1009B000047B70470070004080B483B000AF786063
:1009C0000549054B1A687B689B0013430B600C3785
:1009D000BD465DF8047B70470070004080B58AB06A
:1009E00000AF78604FF48040012100F0C5FD012088
:1009F000012100F0A3FD224809210722FFF736FE5E
:100A00001F480A210722FFF731FE022387F824300E
:100A10004FF4C0633B62032387F82530002387F837
:100A20002630012387F8273007F1200314481946A0
:100A3000FFF7A2FC07F11003184602F0A9FB07F12B
:100A400010031048194602F0EDFA25233B730023EA
:100A50007B730023BB730123FB7307F10C03184660
:100A600002F0BEFF0748012102F0EEFB054840F20C
:100A70002551012202F00CFE2837BD4680BD00BF83
:100A8000000002400038014080B582B000AF7860BD
:100A900011E000BF0B48802102F042FE0346002B0C
:100AA000F8D07B681B789BB20648194602F04AFCD6
:100AB0007B6801337B607B681B78002BE9D10837AA
:100AC000BD4680BD0038014080B500AF00BF06487C
:100AD000202102F025FE0346002BF8D0024802F048
:100AE00043FC0346184680BD0038014080B500AF86
:100AF0001A4840F2255102F03FFE0346002B29D050
:100B0000174B1B68154A928892B2D1B2154AD1543C
:100B1000134B1B68134AD35C9BB21048194602F072
:100B200011FC0F4B1B685A1C0D490A600D4AD35C1F
:100B30000D2B0FD10A4B1B68013B094A1360084B70
:100B40001B68084A0021D154074B01221A60044B4C
:100B500000221A600123184680BD00BF0038014002
:100B6000CC080020A00A0020DC08002080B582B05C
:100B700000AF124B7B60124B3B6007E03B681A1DD5
:100B80003A607A68111D796012681A603B680D4AF4
:100B90009342F3D30C4B3B6004E03B681A1D3A6070
:100BA00000221A603B68094A9342F6D300F068FEBF
:100BB00001F020F80837BD4680BD00BFC46A0008B8
:100BC00000000020CC080020CC080020DC0A002017
:100BD00080B400AFFEE700BF80B489B000AF78609A
:100BE00039600023FB610023BB617B68002B3AD096
:100BF0001FE07A68264B83FB02139910D317C91A9A
:100C00000B469B000B445B00D11ACBB23033D9B2F8
:100C100007F10C02FB6913440A461A707B681C4AF0
:100C200082FB03129210DB17D31A7B60FB6901333E
:100C3000FB617B68002BDCD1FB69013BFB610EE0B3
:100C4000BB693A68134407F10C01FA690A44127847
:100C50001A70BB690133BB61FB69013BFB61FB6936
:100C6000002BEDDA07E0BB693A68134430221A70B2
:100C7000BB690133BB61BB693A68134400221A7037
:100C80003B6818462437BD465DF8047B704700BFBB
:100C9000676666660000000080B582B000AF284B32
:100CA0001B68C3F57A73184604F092FB02460B46A4
:100CB0001046194620A3D3E9002304F0EFFB0246B7
:100CC0000B461046194604F0FBFD03467B6078682E
:100CD00004F046FE01461B4B5A681346DB001344E2
:100CE0005B00194A134408461946FFF775FF15487B
:100CF00002F0DCFD0346012B0CD0124B5A68134660
:100D0000DB0013445B00104A13440E48194602F0FE
:100D100003FE0EE00B4802F029FE0A4B5A68134608
:100D2000DB0013445B00084A13440648194602F0EE
:100D3000F3FD0837BD4680BD9A9999999999B93FB5
:100D4000D008002048090020B0090020AFF300803F
:100D500080B586B000AF7860396000233B61002326
:100D6000FB600020144905F033FA78610DE03A6920
:100D700013469B0013445B001A467B691B78303B8B
:100D800013443B617B6901337B617B691B78002BDA
:100D9000EDD13A6913469B0213445B00FB6002E00D
:100DA000FB68013BFB60FB68002BF9D10023184670
:100DB0001837BD4680BD00BF3C65000880B584B0D3
:100DC00000AF786039600023FB600023FB6012E015
:100DD0000D4802F08DFD0346012B09D00A4802F0B0
:100DE000C5FDB860B868FFF74FFE0848FFF74CFE36
:100DF000FB680133FB60FB68092BE9DD0023184623
:100E00001037BD4680BD00BF48090020406500087E
:100E100080B582B000AF6B467B607B6828331A6870
:100E2000124B1B689A420BDB7B6828331A680F4B06
:100E30005B689A4204DC0E4B1B6801330C4A13605A
:100E40000C4B1B6801330B4A13600A4B1B68B3F54C
:100E50007A7F07D1FFF720FF064B00221A60044B70
:100E600000221A600837BD4680BD00BFD00A0020AE
:100E7000D0080020D408002080B588B000AFF8600A
:100E8000B9607A600023FB610023BB6100237B61B2
:100E90000B237B617B69BB61BB697B61F86820497F
:100EA00005F096F9386138691E4905F027F80346C0
:100EB000002B05D1B8687968FFF780FF00232AE08E
:100EC0001948FFF7E1FD0023FB611DE0174AFB69AC
:100ED00052F823301846396905F010F80346002B04
:100EE0000FD1134AFB6952F82330B86879689847E4
:100EF0000246104B1A601048396905F0DDF80023EE
:100F000009E0FB690133FB61FB69082BDEDD06208C
:100F100001F04EFB002318462037BD4680BD00BFC0
:100F200044650008486500084C650008680000201A
:100F300000000020240900206400002080B400AFDD
:100F4000134A134B1B6843F4807313601049104B12
:100F50009A68104B13408B600D4A0D4B1B6823F0B1
:100F6000885323F001131360094A094B1B6823F4CB
:100F700080231360064A064B9B6823F47D0393602D
:100F8000034B0022DA60BD465DF8047B704700BF6A
:100F9000003802400CC0FF8880B483B000AF034625
:100FA000FB71054B00221A70034AFB7913700C3752
:100FB000BD465DF8047B70470238024080B582B0C0
:100FC00000AF00233B600023FB710023BB71312085
:100FD00000F0E8FB0346BB713B6801333B603B68B4
:100FE000B3F5A06F02D0BB79002BF0D0312000F018
:100FF000D9FB0346002B02D00123FB7101E0002343
:10100000FB71FB7918460837BD4680BD80B483B0BC
:1010100000AF0346FB71044AFB7913700C37BD46E1
:101020005DF8047B704700BF0738024080B485B08C
:1010300000AF78600023FB60094B5B68FB60FB68D6
:1010400023F46043FB60FA687B681343FB60044A47
:10105000FB6853601437BD465DF8047B704700BFE2
:101060000038024080B483B000AF0346FB71044AED
:10107000FB7913600C37BD465DF8047B704700BFF9
:101080002000474280B485B000AF0346FB710023C7
:10109000FB600A4B5B68FB60FB6823F4F853FB6062
:1010A000FB791B02FA681343FB60044AFB68536038
:1010B0001437BD465DF8047B704700BF003802401E
:1010C00080B483B000AF0346FB71044AFB79136020
:1010D0000C37BD465DF8047B704700BF00004742F7
:1010E00080B483B000AF0346FB71054B00221A7039
:1010F000034AFB7913700C37BD465DF8047B7047DB
:101100003538024080B483B000AF0346FB71044A17
:10111000FB7913600C37BD465DF8047B704700BF58
:101120008006474280B483B000AF0346FB710B4694
:10113000BB7113467B710749BA797B791343DAB2E5
:10114000FB791343DBB20B700C37BD465DF8047BB3
:10115000704700BF0A38024080B483B000AF034636
:10116000FB71044AFB7913600C37BD465DF8047BC4
:10117000704700BF6000474280B483B000AF0346B1
:10118000FB71044AFB7913600C37BD465DF8047BA4
:10119000704700BF7000474280B483B000AF034681
:1011A000FB71044AFB7913600C37BD465DF8047B84
:1011B000704700BFAC06474280B483B000AF03461F
:1011C0000A46FB711346BB710549FA79BB79134393
:1011D000DBB20B700C37BD465DF8047B704700BF77
:1011E0000B38024080B485B000AF78600023FB600C
:1011F000094B9B68FB60FB6823F00303FB60FA6804
:101200007B681343FB60044AFB6893601437BD4658
:101210005DF8047B704700BF0038024080B400AF27
:10122000054B9B68DBB203F00C03DBB21846BD46EE
:101230005DF8047B704700BF0038024080B485B081
:1012400000AF78600023FB60094B9B68FB60FB6884
:1012500023F0F003FB60FA687B681343FB60044AE9
:10126000FB6893601437BD465DF8047B704700BF90
:101270000038024080B485B000AF78600023FB6086
:10128000094B9B68FB60FB6823F4E063FB60FA6832
:101290007B681343FB60044AFB6893601437BD46C8
:1012A0005DF8047B704700BF0038024080B485B011
:1012B00000AF78600023FB60094B9B68FB60FB6814
:1012C00023F46053FB607B68DB00FA681343FB6028
:1012D000034AFB6893601437BD465DF8047B704792
:1012E0000038024080B489B000AF78600023FB6111
:1012F0000023BB6100237B6100233B610023FB6073
:101300000023BB605F4B9B6803F00C03FB61FB6930
:101310000C2B65D801A252F823F000BF511300082E
:10132000E1130008E1130008E1130008711300083D
:10133000E1130008E1130008E11300087913000825
:10134000E1130008E1130008E1130008811300080D
:101350004C4B5B6803F460435B0BBB60BB680133C1
:101360001A464FF4004393401A467B681A6047E0E0
:101370007B68454A1A6043E07B68444A1A603FE054
:10138000404B9B6803F47013BB613E4B9B6803F4B6
:1013900040037B61BB699B0C3D4AD35CDBB2BB6104
:1013A0007B699B0D01337B61364B9B6803F4803373
:1013B0003B613B69002B09D1BB69334A02FB03F255
:1013C0007B69B2FBF3F27B681A6019E0BB692F4AB4
:1013D00002FB03F27B69B2FBF3F27B681A600FE059
:1013E000284B5B6803F460435B0BBB60BB68013355
:1013F0001A464FF4004393401A467B681A6000BFB8
:10140000204B9B6803F0F003FB61FB691B09FB6148
:10141000204AFB6913441B78DBB2FB607B681A68C7
:10142000FB68DA407B685A60164B9B6803F4E06304
:10143000FB61FB691B0AFB61164AFB6913441B78BD
:10144000DBB2FB607B685A68FB68DA407B689A60B5
:101450000C4B9B6803F46053FB61FB69DB0AFB6187
:101460000C4AFB6913441B78DBB2FB607B685A684B
:10147000FB68DA407B68DA602437BD465DF8047BA0
:10148000704700BF003802400024F40000127A00C8
:10149000280000203400002080B485B000AF7860C0
:1014A0000023FB607B6803F44033B3F5403F0FD16A
:1014B000114B1B68FB60FB6823F0C043FB607B683B
:1014C00003F0C043FA681343FB600B4AFB681360E8
:1014D000094A094B5B6B23F4403353630649064BBF
:1014E0005A6B7B6803F4403313434B631437BD4698
:1014F0005DF8047B704700BF0038024080B483B0C1
:1015000000AF0346FB71044AFB7913600C37BD46FC
:101510005DF8047B704700BFD806474280B483B0B3
:1015200000AF0346FB71044AFB7913600C37BD46DC
:101530005DF8047B704700BFDC06474280B483B08F
:1015400000AF78600B46FB70FB78002B06D0094992
:10155000084BDA697B681343CB6106E00549054B0C
:10156000DA697B68DB431340CB610C37BD465DF81D
:10157000047B70470038024080B483B000AF7860CD
:101580000B46FB70FB78002B06D00949084B1A6A02
:101590007B6813430B6206E00549054B1A6A7B68BA
:1015A000DB4313400B620C37BD465DF8047B70478C
:1015B0000038024080B483B000AF78600B46FB7007
:1015C000FB78002B06D00949084B5A6A7B68134305
:1015D0004B6206E00549054B5A6A7B68DB431340C2
:1015E0004B620C37BD465DF8047B70470038024003
:1015F00080B483B000AF78600B46FB70FB78002BA3
:1016000006D00949084B1A697B6813430B6106E051
:101610000549054B1A697B68DB4313400B610C37A6
:10162000BD465DF8047B70470038024080B483B04B
:1016300000AF78600B46FB70FB78002B06D00949A1
:10164000084B5A697B6813434B6106E00549054B1B
:101650005A697B68DB4313404B610C37BD465DF82C
:10166000047B70470038024080B483B000AF7860DC
:101670000B46FB70FB78002B06D00949084B9A6992
:101680007B6813438B6106E00549054B9A697B68CB
:10169000DB4313408B610C37BD465DF8047B70471C
:1016A0000038024080B483B000AF78600B46FB7016
:1016B000FB78002B06D00949084B9A6A7B681343D4
:1016C0008B6206E00549054B9A6A7B68DB43134051
:1016D0008B620C37BD465DF8047B704700380240D2
:1016E00080B483B000AF78600B46FB70FB78002BB2
:1016F00006D00949084BDA6A7B681343CB6206E0DF
:101700000549054BDA6A7B68DB431340CB620C3733
:10171000BD465DF8047B70470038024080B483B05A
:1017200000AF78600B46FB70FB78002B06D00949B0
:10173000084B1A6B7B6813430B6306E00549054BA6
:101740001A6B7B68DB4313400B630C37BD465DF8B7
:10175000047B70470038024080B483B000AF03467A
:101760000A46FB711346BB71BB79002B08D00C49AC
:101770000B4B1B78DAB2FB791343DBB20B7009E039
:101780000749074B1B78DAB2FB79DB43DBB2134026
:10179000DBB20B700C37BD465DF8047B704700BFB1
:1017A0000D38024080B487B000AF0346FB710023C0
:1017B000FB6000237B610023FB74FB795B09DBB2D8
:1017C000FB60FB68012B03D10F4B1B687B6102E0C0
:1017D0000D4B5B6B7B61FB7903F01F03FB60FB68C8
:1017E0007A6922FA03F303F00103002B02D00123EC
:1017F000FB7401E00023FB74FB7C18461C37BD46DC
:101800005DF8047B704700BF0038024080B400AF31
:10181000044A044B5B6B43F080735363BD465DF831
:10182000047B70470038024080B485B000AF0346A7
:10183000FB710023FB73094BDA68FB791340002B23
:1018400002D00123FB7301E00023FB73FB7B1846EE
:101850001437BD465DF8047B704700BF0038024076
:1018600080B483B000AF0346FB71044AFB79137068
:101870000C37BD465DF8047B704700BF0E38024050
:1018800080B500AF144A144B1B6843F48073136097
:101890001149114B9A68114B13408B600E4A0E4B45
:1018A0001B6823F0885323F0011313600A4A0A4B84
:1018B0001B6823F480231360074A074B9B6823F4BB
:1018C0007D039360044B0022DA6000F0B7F8044B0C
:1018D0004FF000629A6080BD003802400CC0FF8863
:1018E00000ED00E080B487B000AF00237B610023EF
:1018F0003B610023FB600023BB6000237B60494BFE
:101900009B6803F00C037B617B690C2B64D801A2FC
:1019100052F823F049190008D9190008D91900080C
:10192000D919000869190008D9190008D91900083F
:10193000D919000871190008D9190008D919000827
:10194000D919000879190008364B5B6803F4604325
:101950005B0B7B607B6801331A464FF40043934076
:101960001A46314B1A6047E02F4B304A1A6043E069
:101970002D4B2F4A1A603FE02A4B9B6803F47013EB
:101980003B61284B9B6803F44003FB603B699B0C65
:10199000284AD35CDBB23B61FB689B0D0133FB60E3
:1019A000204B9B6803F48033BB60BB68002B09D1DC
:1019B0003B691E4A02FB03F2FB68B2FBF3F31A4ACF
:1019C000136019E03B691A4A02FB03F2FB68B2FBA1
:1019D000F3F3154A13600FE0124B5B6803F46043A6
:1019E0005B0B7B607B6801331A464FF400439340E6
:1019F0001A460D4B1A6000BF0A4B9B6803F0F003B8
:101A00001B090D4AD35CDBB27B61074B1A687B690B
:101A100022FA03F3044A13601C37BD465DF8047BC9
:101A2000704700BF00380240440000200024F4004A
:101A300000127A00480000205400002080B483B0D7
:101A400000AF00237B6000233B60414A404B1B6892
:101A500043F4803313603E4B1B6803F400333B6058
:101A60007B6801337B603B68002B03D17B68B3F557
:101A7000A06FF0D1364B1B6803F40033002B02D06B
:101A800001233B6001E000233B603B68012B5AD1FE
:101A9000304A304B1B6843F0040313602D4A2D4B32
:101AA0001B6843F0020313602A4A2A4B1B6843F069
:101AB00001031360264A264B5B6A43F0805353624E
:101AC000254B4FF400621A6000BF234B5B6803F0A4
:101AD0001003002BF9D11E4A1D4B9B6893601C4AD2
:101AE0001B4B9B6893601A4A194B9B689360184A7A
:101AF000174B9B6823F47D039360154A144B9B6836
:101B000043F411039360124A114B1B6843F0807336
:101B1000136000BF0E4B1B6803F00073002BF9D05D
:101B20000B4A0B4B9B6823F003039360084A084B56
:101B30009B6843F00303936000BF054B9B6803F071
:101B40000C030C2BF9D10C37BD465DF8047B7047B4
:101B500000380240003C02400070004080B483B076
:101B600000AF03463960FB7197F90730002B0BDAA1
:101B70000D49FB7903F00F03043B3A68D2B212011E
:101B8000D2B20B441A7609E0084997F907303A684F
:101B9000D2B21201D2B20B4483F800230C37BD46F7
:101BA0005DF8047B704700BF00ED00E000E100E05D
:101BB00080B582B000AF78607B68B3F1807F01D3DD
:101BC000012311E00A4A7B6823F07F43013B536005
:101BD0004FF0FF300F21FFF7C1FF054B00229A6045
:101BE000034B07221A60002318460837BD4680BD04
:101BF00010E000E080B500AF4FF41650FEF7EEFEA7
:101C0000FFF770FE1A4B4FF400121A60184B1B6856
:101C1000184AA2FB03239B091846FFF7C9FF0420BB
:101C200003F0C4FE03461A46134B1A60042003F067
:101C3000BDFE03461A46114B1A600F4B1B6818462F
:101C400003F0DAF90D4B1B68184603F0D5F900F0E4
:101C500081FBFEF74FFA01F007FE094B094A1A60B3
:101C6000074B094A5A6004F0F5FE0023184680BD70
:101C700044000020D34D6210780900207C09002028
:101C8000D00A0020556A00088C6A000880B584B02C
:101C900000AFF860B9607A600020604904F098FAFB
:101CA00002465F4B1A605E4B1B68002B04D1062076
:101CB00000F07EFCBB68ADE0594B1B6818465949E3
:101CC00004F01CF90346002B51D10020534904F0C5
:101CD0007FFA0246524B1A60514B1B68002B04D10D
:101CE000062000F065FCBB6894E04D4B1B6818466D
:101CF00001F052F80346012B04D1092000F058FCF2
:101D0000BB6887E0FB68002B1ED17B6803F11302E0
:101D1000434B1B681046194604F0CEF9424B012292
:101D20001A60B8687968414A03F0E0F90246404B0E
:101D30001A603F4B1B68002B02D03D4B1B6869E0CB
:101D4000042000F035FC64E0FB6803F11302344B1F
:101D50001B681046194604F0AFF9334B01221A6094
:101D6000B868F968314A03F0C1F9034652E02C4BD8
:101D70001B6818462F4904F0C1F80346002B45D1D3
:101D80000020264904F024FA0246254B1A60244B11
:101D90001B68002B04D1062000F00AFCBB6839E068
:101DA0001F4B1B68184600F0C7FF0346012B04D1E8
:101DB000072000F0FDFBBB682CE0FB68002B12D174
:101DC0007B6803F10802164B1B681046194604F0A5
:101DD00073F9154B01221A60B8687968164A03F046
:101DE00085F9034616E0FB6803F108020C4B1B68FB
:101DF0001046194604F060F90B4B01221A60B868CE
:101E0000F9680D4A03F072F9034603E0062000F07A
:101E1000CFFBBB6818461037BD4680BD8065000803
:101E20006400002084650008D8080020892C000880
:101E30002409002088650008E12C000880B584B0E2
:101E400000AF78603960334879680022FFF71EFFE1
:101E50000246314B1A60304B1B68002B4BD12D488A
:101E600079680022FFF712FF02462B4B1A602A4BBB
:101E70001B68002B33D1294B1B68082B2ADC202040
:101E800003F094FD0346FB60FB68002B04D124485B
:101E9000FEF7FAFD7B6839E0FB68133318462149E9
:101EA00004F00AF9FB68083318461F4904F004F9E6
:101EB0001E4B01221A607868F9681D4A03F0C8F8C1
:101EC000164B1B680133154A1360022000F0CAFB51
:101ED0007B681BE0022000F06BFB002316E00E4B3A
:101EE0001A687B689A4201D100230FE0032000F0BA
:101EF0005FFB00230AE0084B1A687B689A4201D115
:101F0000002303E0032000F053FB002318461037A2
:101F1000BD4680BD2809002024090020E0080020DB
:101F20008C6500083B09002030090020D8080020FB
:101F3000892C000880B582B000AF786039601B48FA
:101F400079680022FFF7A2FE0246194B1A60184B6F
:101F50001B68002B1BD0164B1A687B689A4216D060
:101F6000134B1B68184603F0ABF8114B1B6818465F
:101F700003F024FD0E4B00221A600E4B1B68013B40
:101F80000C4A1360032000F06DFB7B6809E0084BEE
:101F90001B68002B04D1042000F00AFB002300E0A2
:101FA0007B6818460837BD4680BD00BF2809002061
:101FB00024090020E008002080B584B000AF7860DC
:101FC0003960434879680022FFF760FEF860FB68DB
:101FD000002B04D1042000F0EBFA002374E0FA682F
:101FE0007B689A4204D1062000F0E2FA00236BE0FD
:101FF000374879680022FFF749FE0246354B1A60E0
:10200000344B1A68FB689A4203D0324B1B68002B92
:102010004CD12F4879680022FFF738FE02462D4B3D
:102020001A602C4B1A68FB689A4203D0294B1B6834
:10203000002B2CD1202003F0B9FC0346BB60BB6809
:10204000002B04D12448FEF71FFD7B683CE0BB68F1
:1020500013331846214904F02FF8BB68083318469B
:102060001F4904F029F87868B9681E4A02F0F0FFA9
:10207000F86803F025F8F86803F0A0FC0023FB6083
:10208000042000F0EFFA00BF00BF7B681CE0114B9A
:102090001A687B689A4204D1062000F089FA00236E
:1020A00012E0042000F084FA00230DE0094B1A68C6
:1020B0007B689A4204D1062000F07AFA002303E0FC
:1020C000042000F075FA002318461037BD4680BD85
:1020D0002809002024090020A06500083B090020F1
:1020E00030090020892C000880B584B000AF7860EA
:1020F0003960494B1B68092B20D1484B00221A60DC
:102100003B685B6838681946454A02F0EFFF0246B3
:10211000444B1A60434B1B68002B0FD0082000F083
:1021200047FA404B1B68184602F0CAFF3D4B1B683C
:10213000184603F043FC3B4B00221A6000207968EC
:10214000394AFFF7A3FD0246364B1A60354B1A6831
:102150007B689A4201D1002359E0324B1B68002B67
:1021600003D10022304BDA740EE02E4B1B68FB606B
:10217000FB6808332D48194603F09EFFFB681333B4
:102180002B48194603F098FF274B2A4A1D33106845
:10219000186000F001F9214B00221A602248FEF776
:1021A0000FF8254B00221A60234B1B68012B2DD101
:1021B0002248234903F0A2FE0346002B0DD1214BF8
:1021C0001A68214B1B681046194600F041F81A4B5B
:1021D00000221A6000BF3B6819E019481B4903F050
:1021E0008DFE0346002B0BD1164B1A68164B1B684D
:1021F00010461946FEF7E2FD0F4B00221A6005E07B
:10220000062000F0D5F90C4B00221A60CCE71846E6
:102210001037BD4680BD00BFE8080020D808002068
:10222000E12C0008240900208009002088090020F2
:1022300093090020BC650008DC080020B465000894
:10224000A00A0020780900207C090020B865000859
:1022500080B584B000AF78603960302003F0A6FB11
:102260000346FB60FB68002B04D13048FEF70CFCF2
:102270007B6856E0FB68133318462D4903F01CFFBA
:10228000FB68083318462B4903F016FFFB681D3323
:102290001846294903F010FFFB68213318462749E7
:1022A00003F00AFF00F082F8254B01221A60F8685B
:1022B000FDF786FF234B5A68224B1B68D31A18463A
:1022C000F96800F09DFD1E4B00221A603868F9681D
:1022D0001D4A02F00BFF02461C4B1A601B4B1B6889
:1022E000002B11D0194B1B68184602F0E9FE174B62
:1022F0001B68184603F062FB144B00221A60144B53
:102300001B68013B124A13603868F96802F086FEC8
:10231000062000F0A7F90E4B1B6801330C4A13602E
:102320003B6818461037BD4680BD00BFC065000839
:1023300093090020880900209D090020A1090020A0
:10234000D8080020C80A0020E12C00082409002039
:10235000E808002080B582B000AF02200121FFF71D
:10236000EDF84FF6FF733B6001233B710023BB7117
:1023700003237B710123FB713B4606481946FDF799
:10238000FBFF04484FF6FF71FEF728F90837BD46FA
:1023900080BD00BF0004024080B500AF024880212C
:1023A000FEF70EF980BD00BF0004024080B500AF0B
:1023B00002488021FEF712F980BD00BF00040240F0
:1023C00080B584B000AF786039601B48FEF75CFBD5
:1023D0007B681B68194A1360184B1A687B689A421D
:1023E00004D1012000F0E4F8002321E017E0134BB2
:1023F0001B68FB60FB6813331846FEF745FB10486B
:10240000FEF742FBFB6808331846FEF73DFB0A481F
:10241000FEF73AFB094B1B681B68084A1360074B21
:102420001A687B689A42E2D1012000F01BF97B68B0
:1024300018461037BD4680BDD0650008240900202D
:10244000D465000880B582B000AF78603960164866
:10245000FEF71AFB1548FEF717FB1548FEF714FBAD
:102460001448FEF711FB1448FEF70EFB1348FEF765
:102470000BFB1348FEF708FB1248FEF705FB12485A
:10248000FEF702FB1148FEF7FFFA1148FEF7FCFACF
:102490001048FEF7F9FA1048FEF7F6FA7B6818467E
:1024A0000837BD4680BD00BFD86500080866000833
:1024B0003C6600086066000898660008D066000860
:1024C00000670008346700087C670008C4670008DC
:1024D000F0670008186800083C68000880B584B000
:1024E00000AF786039603B681B682A4A13602A484D
:1024F000FEF7CAFA274B1A683B689A4204D10520B6
:1025000000F056F8002341E037E0224B1B68FB60E7
:10251000FB6808331846FEF7B7FA2048FEF7B4FA0E
:10252000FB68DB7C002B08D0FB6813331846FEF7F2
:10253000ABFA1A48FEF7A8FA02E01948FEF7A4FA27
:10254000FB681D331846FEF79FFA1648FEF79CFA03
:10255000FB6821331846FEF797FA1348FEF794FA02
:10256000FB682B331846FEF78FFA1048FEF78CFAFB
:10257000084B1B681B68074A1360064B1A683B68C8
:102580009A42C2D1052000F06DF83B68184610371A
:10259000BD4680BD24090020D0650008D465000830
:1025A000586800085C680008646800086C680008E7
:1025B00080B582B000AF78607B68013B082B3AD8C9
:1025C00001A252F823F000BFED250008F525000810
:1025D000FD250008052600080D2600081526000820
:1025E0001D260008252600082D2600081448FEF7A1
:1025F0004BFA1FE01348FEF747FA1BE01248FEF7BC
:1026000043FA17E01148FEF73FFA13E01048FEF7CF
:102610003BFA0FE00F48FEF737FA0BE00E48FEF7E3
:1026200033FA07E00D48FEF72FFA03E00C48FEF7F7
:102630002BFA00BF00BF00BF0837BD4680BD00BFFA
:1026400074680008A4680008BC680008E86800080E
:10265000246900083C6900085C6900087869000882
:102660009069000880B582B000AF78607B68013B5C
:10267000052B28D801A252F823F000BF95260008A8
:102680009D260008A5260008AD260008B5260008EE
:10269000BD2600080E48FEF7F7F913E00D48FEF7D7
:1026A000F3F90FE00C48FEF7EFF90BE00B48FEF7EB
:1026B000EBF907E00A48FEF7E7F903E00948FEF7FF
:1026C000E3F900BF00BF00BF0837BD4680BD00BFB3
:1026D000A8690008C4690008E0690008FC690008EE
:1026E000146A0008306A000880B500AF012001219B
:1026F000FEF79CFF01200021FEF798FF80BD00BF80
:1027000080B400AF0C4B00221A600B4B00225A60C1
:10271000094B00229A60084B0022DA60064B002227
:102720001A61054B00225A61034B00229A61BD4693
:102730005DF8047B704700BF047C004080B483B028
:1027400000AF0346FB71044AFB7913600C37BD46AA
:102750005DF8047B704700BF0000014080B400AF0B
:10276000044B1B6803F440731846BD465DF8047BB8
:10277000704700BF0000014080B483B000AF034643
:10278000FB71FB79002B06D0084A084B5B6843F0CD
:102790000103536005E0054A044B5B6823F0010325
:1027A00053600C37BD465DF8047B70470000014064
:1027B00090B484B000AF03460A46FB711346BB7168
:1027C0000023FB60BB7903F003039B000F2202FA96
:1027D00003F3FB601649BB799B08DBB21846144A29
:1027E000BB799B08DBB2023352F82320FB68DB4342
:1027F0001A40831C41F823200D48BB799B08DBB2AB
:102800001C460B4ABB799B08DBB2023352F82320EB
:10281000F979BB7903F003039B0001FA03F31A4330
:10282000A31C40F823201037BD4690BC704700BF62
:102830000000014080B485B000AF78600023FB60E9
:10284000094B1B68FB60FB6823F44033FB60FA68AC
:102850007B681343FB60044AFB6813601437BD4672
:102860005DF8047B704700BF047C004080B485B0F5
:1028700000AF786039600023FB60234B1B68FB606E
:10288000FA687B681343FB607B6803F48023002BAA
:1028900007D0FB6823F00F03FB60FA683B68134323
:1028A000FB607B6803F40023002B08D0FB6823F057
:1028B000F003FB603B681B01FA681343FB607B6815
:1028C00003F48013002B08D0FB6823F47063FB60D3
:1028D0003B681B02FA681343FB607B6803F4001338
:1028E000002B08D0FB6823F47043FB603B681B039C
:1028F000FA681343FB60044AFB6813601437BD4653
:102900005DF8047B704700BF047C004080B483B056
:1029100000AF78600B46FB70FB78002B06D00949AE
:10292000084B1A687B6813430B6006E00549054BAA
:102930001A687B68DB4313400B600C37BD465DF8BB
:10294000047B7047007C004080B483B000AF7860A7
:1029500039603B68002B07D00949094B1A687B682E
:10296000DB4313400B6005E00549054B1A687B68A3
:1029700013430B600C37BD465DF8047B704700BF06
:10298000007C004080B485B000AF78600B46FB70DF
:102990000023FB607B68DB0FFB607B6823F0004358
:1029A0007B60FB78002B10D0FB68002B06D012490F
:1029B000114B5A687B6813434B6018E00E490E4B6D
:1029C0009A687B6813438B6011E0FB68002B07D08B
:1029D0000949094B5A687B68DB4313404B6006E0AA
:1029E0000549054B9A687B68DB4313408B601437BD
:1029F000BD465DF8047B7047047C004080B483B022
:102A000000AF0346FB71FB79002B06D0084A084B48
:102A10005B6843F00043536005E0054A044B5B6884
:102A200023F0004353600C37BD465DF8047B7047CC
:102A3000047C004080B483B000AF0346FB710B46BA
:102A4000BB801346BB71FB79012B11D1BB79002BE5
:102A500007D04A49494BDA68BB88DB431340CB6057
:102A600086E04649454BDA68BB881343CB607FE07C
:102A7000FB79022B13D1BB79002B08D03F493F4B88
:102A8000DA68BB88DB431B041340CB6070E03B4932
:102A90003A4BDA68BB881B041343CB6068E0FB79D0
:102AA000032B11D1BB79002B07D03449334B1A6962
:102AB000BB88DB4313400B615AE030492F4B1A6946
:102AC000BB8813430B6153E0FB79042B13D1BB7913
:102AD000002B08D02949294B1A69BB88DB431B040A
:102AE00013400B6144E02549244B1A69BB881B0441
:102AF00013430B613CE0FB79052B11D1BB79002B13
:102B000007D01E491D4B5A69BB88DB4313404B61FC
:102B10002EE01A49194B5A69BB8813434B6127E0D1
:102B2000FB79062B13D1BB79002B08D01349134B2B
:102B30005A69BB88DB431B0413404B6118E00F4903
:102B40000E4B5A69BB881B0413434B6110E0BB79E1
:102B5000002B07D00949094B9A69BB88DB43134016
:102B60008B6105E00549054B9A69BB8813438B616E
:102B70000C37BD465DF8047B704700BF047C004005
:102B800080B485B000AF78600B4B1B68002B02D17E
:102B9000094B0A4A1A60084B1B68FB60064B1A680F
:102BA0007B681344044A1360FB6818461437BD461B
:102BB0005DF8047B704700BFEC080020DC0A0020B1
:102BC00080B483B000AF786039604FF0FF331846AF
:102BD0000C37BD465DF8047B704700BF80B483B0FE
:102BE00000AF78604FF0FF3318460C37BD465DF8F4
:102BF000047B704780B483B000AF786039603B6875
:102C00004FF400525A60002318460C37BD465DF859
:102C1000047B704780B483B000AF7860012318460E
:102C20000C37BD465DF8047B704700BF80B485B0AB
:102C300000AFF860B9607A60002318461437BD46CB
:102C40005DF8047B704700BF80B485B000AFF860CA
:102C5000B9607A607B6818461437BD465DF8047B1E
:102C6000704700BF80B485B000AFF860B9607A608B
:102C70007B6818461437BD465DF8047B704700BF7B
:102C800080B400AFFEE700BF80B586B000AF7860CB
:102C90003960124B1B68012B0ED17B687B613B684E
:102CA0003B617B6903F113023B69133310461946FC
:102CB00003F024F903460DE07B68FB603B68BB60D2
:102CC000FB6803F11302BB6813331046194603F087
:102CD00015F9034618461837BD4680BDD8080020B0
:102CE00080B586B000AF78603960124B1B68012B4D
:102CF0000ED17B687B613B683B617B6903F1080215
:102D00003B6908331046194603F0F8F803460DE016
:102D10007B68FB603B68BB60FB6803F10802BB6833
:102D200008331046194603F0E9F8034618461837E9
:102D3000BD4680BDD808002080B584B000AF786063
:102D40000023FB600023FB6010E0FB687A681344FB
:102D50001B782F2B05D9FB687A6813441B78392B15
:102D600001D9012313E0FB680133FB60FB687A683B
:102D700013441B78002BE8D1786803F0FBF9034675
:102D8000FB60FB680A2B01D0012300E000231846FA
:102D90001037BD4680BD00BF80B584B000AF7860FD
:102DA0000023FB600023BB600023FB6012E0FB6894
:102DB0007A6813441B782F2B05D9FB687A68134473
:102DC0001B783A2B00D902E0BB680133BB60FB687B
:102DD0000133FB60FB687A6813441B78002BE6D153
:102DE000BB680A2B05D0786803F0C4F90346092BA9
:102DF00001D9012300E0002318461037BD4680BDED
:102E000080B485B000AF786039600023FB601EE0BD
:102E10007A68264B83FB02139910D317C91A0B4605
:102E20009B000B445B00D11ACBB23033D9B2204A9D
:102E3000FB6813440A461A707B681C4A82FB031223
:102E40009210DB17D31A7B60FB680133FB607B6851
:102E5000002BDDD100237B60FB68013BFB600FE0B2
:102E6000134AFB68134419783A687B681344283383
:102E70000A46DA70FB68013BFB607B6801337B60CC
:102E8000FB68002BECDA0023FB60094A7B681344E3
:102E900000221A703A687B68134428330022DA70E3
:102EA00000BF1437BD465DF8047B704767666666F1
:102EB000A00A002080B48BB000AFF860B9607A60DF
:102EC00000237B62FB68002B08D107F110027B6AAC
:102ED000134430221A707B6A01337B621FE0FA6868
:102EE000214B83FB02139910D317C91A0B469B0081
:102EF0000B445B00D11ACBB23033D9B207F11002C8
:102F00007B6A13440A461A70FB68174A82FB031255
:102F10009210DB17D31AFB607B6A01337B62FB687C
:102F2000002BDCD10023FB607B6A013B7B6210E05D
:102F300007F110027B6A134419787A68BB6813445E
:102F400020330A465A707B6A013B7B62BB680133BF
:102F5000BB607B6A002BEBDABB6818462C37BD469A
:102F60005DF8047B704700BF6766666680B582B017
:102F700000AF78607B68264A93420AD14FF48040C4
:102F80000121FEF753FB4FF480400021FEF74EFB7A
:102F90003AE07B681F4A93420AD14FF40030012186
:102FA000FEF762FB4FF400300021FEF75DFB2BE0E3
:102FB0007B68194A93420AD14FF480200121FEF721
:102FC00053FB4FF480200021FEF74EFB1CE07B6892
:102FD000124A93420AD14FF400200121FEF744FB2C
:102FE0004FF400200021FEF73FFB0DE07B680C4A08
:102FF000934209D14FF480100121FEF735FB4FF4C5
:1030000080100021FEF730FB0837BD4680BD00BFB1
:10301000003801400044004000480040004C00409F
:103020000050004080B58AB000AF7860396000235E
:103030007B6200233B620023FB610023BB617B6852
:103040001B8A9BB27B627B6A23F440537B623B68A2
:10305000DB881A467B6A13437B627B6A9AB27B6881
:103060001A827B689B899BB27B627B6A23F4B05394
:1030700023F00C037B623B689A883B681B891343EF
:103080009AB23B685B8913439BB21A467B6A13432F
:103090007B627B6A9AB27B689A817B689B8A9BB2CF
:1030A0007B627B6A23F440737B623B689B891A4690
:1030B0007B6A13437B627B6A9AB27B689A8207F1D0
:1030C00008031846FEF70EF97B682F4A934202D197
:1030D0007B693B6201E03B693B627B689B899BB2F9
:1030E0009BB21BB2002B0CDA3A6A13469B001344C6
:1030F0009A001A443B681B685B00B2FBF3F3FB6168
:103100000BE03A6A13469B0013449A001A443B684A
:103110001B689B00B2FBF3F3FB61FB691B4AA2FB3C
:1031200003235B091B017B627B6A1B09642202FB90
:1031300003F3FA69D31ABB617B689B899BB29BB28C
:103140001BB2002B0CDABB69DB0032330F4AA2FB47
:1031500003235B0903F007037A6A13437B620BE0E6
:10316000BB691B013233094AA2FB03235B0903F04D
:103170000F037A6A13437B627B6A9AB27B681A8177
:103180002837BD4680BD00BF003801401F85EB5188
:1031900080B483B000AF78607B684FF416521A6039
:1031A0007B6800229A807B680022DA807B6800229C
:1031B0001A817B680C225A817B6800229A810C3725
:1031C000BD465DF8047B704780B485B000AF786081
:1031D00039600023FB607B681B8A9BB2FB60FB6845
:1031E00023F47063FB603B681A883B685B88134379
:1031F0009AB23B689B8813439AB23B68DB881343BF
:103200009BB21A46FB681343FB60FB689AB27B686B
:103210001A821437BD465DF8047B704780B483B0D2
:1032200000AF78607B6800221A807B6800225A8099
:103230007B6800229A807B680022DA800C37BD46CA
:103240005DF8047B704700BF80B483B000AF786046
:103250000B46FB70FB78002B08D07B689B899BB2E8
:1032600043F400539AB27B689A8107E07B689B899C
:103270009BB223F400539AB27B689A810C37BD4607
:103280005DF8047B704700BF80B483B000AF786006
:103290000B46FB707B681B8B9BB223F0FF039AB23B
:1032A0007B681A837B681B8B9AB2FB789BB21343B3
:1032B0009AB27B681A830C37BD465DF8047B704771
:1032C00080B483B000AF78600B46FB70FB78002BB6
:1032D0000AD07B689B899BB26FEA43436FEA5343F2
:1032E0009AB27B689A8107E07B689B899BB2C3F3A3
:1032F0000E039AB27B689A810C37BD465DF8047B59
:10330000704700BF80B483B000AF78600B46FB709D
:10331000FB78002B08D07B689B8A9BB243F4006348
:103320009AB27B689A8207E07B689B8A9BB223F4FF
:1033300000639AB27B689A820C37BD465DF8047BC5
:10334000704700BF80B483B000AF78600B467B80CD
:103350007B88C3F308039AB27B689A800C37BD461A
:103360005DF8047B704700BF80B483B000AF786025
:103370007B689B889BB2C3F308039BB218460C374B
:10338000BD465DF8047B704780B483B000AF7860C1
:103390000B46FB707B681B8A9BB223F00F039AB22B
:1033A0007B681A827B681B8A9AB2FB789BB21343B4
:1033B0009AB27B681A820C37BD465DF8047B704771
:1033C00080B483B000AF78600B46FB70FB78002BB5
:1033D00008D07B689B899BB243F002039AB27B685A
:1033E0009A8107E07B689B899BB223F002039AB223
:1033F0007B689A810C37BD465DF8047B704700BF3F
:1034000080B483B000AF78600B467B807B689B897B
:103410009BB223F400639AB27B689A817B689B8994
:103420009AB27B8813439AB27B689A810C37BD4667
:103430005DF8047B704700BF80B483B000AF786054
:103440000B467B807B681B8A9BB223F020039AB2D9
:103450007B681A827B681B8A9AB27B8813439AB274
:103460007B681A820C37BD465DF8047B704700BF4D
:1034700080B483B000AF78600B46FB70FB78002B04
:1034800008D07B681B8A9BB243F480439AB27B6866
:103490001A8207E07B681B8A9BB223F480439AB2AE
:1034A0007B681A820C37BD465DF8047B704700BF0D
:1034B00080B483B000AF78607B689B899BB243F097
:1034C00001039AB27B689A810C37BD465DF8047B94
:1034D000704700BF80B483B000AF78600B46FB70CC
:1034E000FB78002B08D07B689B8A9BB243F00803D3
:1034F0009AB27B689A8207E07B689B8A9BB223F032
:1035000008039AB27B689A820C37BD465DF8047B4B
:10351000704700BF80B483B000AF78600B46FB708B
:103520007B681B8B9BB2DBB29AB27B681A837B6889
:103530001B8B9AB2FB789BB21B029BB213439AB2CD
:103540007B681A830C37BD465DF8047B704700BF6B
:1035500080B483B000AF78600B46FB70FB78002B23
:1035600008D07B689B8A9BB243F020039AB27B68A9
:103570009A8207E07B689B8A9BB223F020039AB271
:103580007B689A820C37BD465DF8047B704700BFAC
:1035900080B483B000AF78600B46FB70FB78002BE3
:1035A00008D07B689B8A9BB243F010039AB27B6879
:1035B0009A8207E07B689B8A9BB223F010039AB241
:1035C0007B689A820C37BD465DF8047B704700BF6C
:1035D00080B483B000AF78600B467B807B689B8AA9
:1035E0009BB223F004039AB27B689A827B689B8A21
:1035F0009AB27B8813439AB27B689A820C37BD4695
:103600005DF8047B704700BF80B483B000AF786082
:103610000B46FB70FB78002B08D07B689B8A9BB223
:1036200043F002039AB27B689A8207E07B689B8A28
:103630009BB223F002039AB27B689A820C37BD4694
:103640005DF8047B704700BF80B483B000AF786042
:103650000B467B8013467B707B78002B08D07B6801
:103660009B8A9AB27B8813439AB27B689A8209E05C
:103670007B689B8A9AB27B88DB439BB213409AB2E9
:103680007B689A820C37BD465DF8047B704700BFAB
:1036900080B487B000AF78600B467B8013467B70A8
:1036A00000233B610023FB600023BB6000237B61A0
:1036B0007B687B617B88DBB25B09DBB23B617B882B
:1036C00003F01F03FB60FB68012202FA03F3BB60F7
:1036D0003B69012B03D17B690C337B6109E03B69BA
:1036E000022B03D17B6910337B6102E07B691433C9
:1036F0007B617B78002B06D07B697A691168BA6898
:103700000A431A6006E07B697A691168BA68D24395
:103710000A401A601C37BD465DF8047B704700BF45
:1037200080B485B000AF78600B467B800023FB73CC
:103730007B681B889AB27B8813409BB2002B02D017
:103740000123FB7301E00023FB73FB7B1846143756
:10375000BD465DF8047B704780B483B000AF7860ED
:103760000B467B807B88DB439AB27B681A800C37E0
:10377000BD465DF8047B704780B487B000AF7860C9
:103780000B467B800023FB6000237B610023BB6032
:103790000023FB747B88DBB25B09DBB2BB607B88F8
:1037A00003F01F037B617B69012202FA03F37B6153
:1037B000BB68012B07D17B689B899BB21A467B694A
:1037C00013407B6111E0BB68022B07D17B681B8A29
:1037D0009BB21A467B6913407B6106E07B689B8A3B
:1037E0009BB21A467B6913407B617B881B0A9BB2A4
:1037F000FB60FB68012202FA03F3FB607B681B8815
:103800009BB21A46FB681340FB607B69002B05D016
:10381000FB68002B02D00123FB7401E00023FB7442
:10382000FB7C18461C37BD465DF8047B704700BF23
:1038300080B485B000AF78600B467B800023FB81AD
:103840000023BB817B881B0AFB81FB89012202FAD2
:1038500003F3BB81BB89DB439AB27B681A801437C0
:10386000BD465DF8047B704780B483B000AF002391
:103870007B600D4B00221A600B4B00225A60002324
:103880007B6008E0084A7B680233002142F823107D
:103890007B6801337B607B68092BF3DD0C37BD4609
:1038A0005DF8047B704700BF4809002080B483B0F6
:1038B00000AF78607B685B68591C0C4B83FB01236D
:1038C0009A10CB17D21A13469B0013445B00CA1AF6
:1038D0007B681B689A420CBF01230023DBB21846A9
:1038E0000C37BD465DF8047B704700BF67666666AF
:1038F00080B483B000AF78607B681A687B685B68CF
:103900009A420CBF01230023DBB218460C37BD4698
:103910005DF8047B704700BF80B483B000AF78606F
:1039200039607B685A687B680232396843F8221034
:103930007B685B685A1C7B685A607B6859680A4BD5
:1039400083FB01239A10CB17D21A13469B00134412
:103950005B00CA1A7B685A607B6818460C37BD4604
:103960005DF8047B704700BF6766666680B485B00B
:1039700000AF78607B681A687B68023253F82230A7
:10398000FB607B681B685A1C7B681A607B6819683F
:10399000094B83FB01239A10CB17D21A13469B00C5
:1039A00013445B00CA1A7B681A60FB681846143718
:1039B000BD465DF8047B70476766666680B483B079
:1039C00000AF7860054A7B6843F0BF6343F400337F
:1039D000D3600C37BD465DF8047B704700ED00E016
:1039E00080B485B000AF78600023FB730023BB7305
:1039F0000F237B737B68DB78002B38D0264BDB688A
:103A0000DB4303F4E0631B0AFB73FB7BC3F104039A
:103A1000BB737A7BFB7B42FA03F37B737B685B7837
:103A20001A46BB7B02FA03F3FB737B689A787B7BB5
:103A30001340DAB2FB7B1343FB73FB7B1B01FB736D
:103A4000164A7B681B781344FA7B83F80023134AD9
:103A50007B681B785B09DBB218467B681B7803F038
:103A60001F03012101FA03F342F820300FE00B4954
:103A70007B681B785B09DBB218467B681B7803F018
:103A80001F0301229A4000F1200341F8232014373C
:103A9000BD465DF8047B704700ED00E000E100E00A
:103AA00080B483B000AF7860396007493B6823F089
:103AB000604323F07F037A6813438B600C37BD4665
:103AC0005DF8047B704700BF00ED00E080B483B078
:103AD00000AF03460A46FB711346BB71BB79002B4E
:103AE00006D00949084B1A69FB7913430B6106E0BC
:103AF0000549054B1A69FB79DB4313400B610C3711
:103B0000BD465DF8047B704700ED00E080B483B0F3
:103B100000AF78607B68042B06D1094A084B1B680C
:103B200043F00403136005E0054A054B1B6823F0CE
:103B3000040313600C37BD465DF8047B704700BF7B
:103B400010E000E080B584B000AF00237B6000236C
:103B5000BB600023FB73364BCA225A62344B53229C
:103B60005A6200F0D1F80346002B02D10023FB7308
:103B700055E02F4B00221A602D4B42F201125A6081
:103B80002B4A2B4B9B6803F007039360284BDB68A1
:103B900003F00403BB607B6801337B607B68B3F593
:103BA000005F02D0BB68002BF0D0214BDB6803F034
:103BB0000403002B02D10023FB7330E01C4B9B68F5
:103BC0001B4B00229A601A4B4FF6FF725A61184B3A
:103BD000184A1A61164B00229A61154B0022DA61CD
:103BE000134B00221A62124B0022DA62104B0022A1
:103BF000DA630F4B00225A640D4B00229A640C4B7F
:103C00000022DA600A4B00221A6400F0C5F803466D
:103C1000002B02D10023FB7301E00123FB73044B53
:103C2000FF225A62FB7B18461037BD4680BD00BF9D
:103C300000280040FF007F0080B584B000AF7860AE
:103C40000023FB73194BCA225A62184B53225A6243
:103C500000F05AF80346002B02D10023FB731CE04E
:103C6000124A124B9B6823F0400393600F490F4B9D
:103C70009A687B681B6813438B600C4A7B689B685F
:103C800013610A49094B1A697B685B681B0413437B
:103C90000B6100F073F80123FB73044BFF225A629F
:103CA000FB7B18461037BD4680BD00BF0028004092
:103CB00080B483B000AF78607B6800221A607B68B4
:103CC0007F225A607B68FF229A600C37BD465DF800
:103CD000047B704780B483B000AF0346FB71FB796F
:103CE000002B03D0074BFF225A6205E0054BCA2286
:103CF0005A62044B53225A620C37BD465DF8047B6E
:103D0000704700BF0028004080B485B000AF00239A
:103D10007B600023FB730023BB60174BDB6803F061
:103D20004003002B1ED1144B4FF0FF32DA60124BD0
:103D3000DB6803F04003BB607B6801337B607B681A
:103D4000B3F5005F02D0BB68002BF0D00A4BDB68F4
:103D500003F04003002B02D00123FB7304E0002397
:103D6000FB7301E00123FB73FB7B18461437BD4650
:103D70005DF8047B704700BF0028004080B400AFAE
:103D8000044A044BDB6823F08003D360BD465DF832
:103D9000047B70470028004080B485B000AF00234A
:103DA0007B600023FB730023BB60184BCA225A625E
:103DB000164B53225A62154A144BDB6823F0A003BA
:103DC000D360124BDB6803F02003BB607B680133D8
:103DD0007B607B68B3F5004F02D0BB68002BF0D04E
:103DE0000A4BDB6803F02003002B02D00123FB7396
:103DF00001E00023FB73054BFF225A62FB7B184650
:103E00001437BD465DF8047B704700BF00280040B2
:103E100080B584B000AF0346FB710023FB73154BE4
:103E2000CA225A62134B53225A62FFF76DFF0346B0
:103E3000002B02D10023FB7313E0FB79002B06D08B
:103E40000C4A0C4B9B6843F01003936005E0094A51
:103E5000084B9B6823F010039360FFF78FFF01234B
:103E6000FB73044BFF225A62FB7B18461037BD469A
:103E700080BD00BF0028004080B483B000AF03467F
:103E8000FB710F4BCA225A620D4B53225A62FB79C7
:103E9000002B06D00A4A0A4B9B6843F0200393602C
:103EA00005E0074A064B9B6803F0DF039360044B71
:103EB000FF225A620C37BD465DF8047B704700BF95
:103EC0000028004090B585B000AF786039600023CD
:103ED000FB600023FB727B68002B09D13D4B9B6884
:103EE00003F04003002B14D13B680022DA7010E08D
:103EF000384B9B6803F04003002B07D03B681B78CE
:103F0000184601F05DF80346FB6002E03B680022C2
:103F1000DA707B68002B0FD03B681B781A043B6873
:103F20005B781B0213433A6892781A433B68DB784C
:103F30001B041343FB601BE03B681B78184601F031
:103F400021F803461C043B685B78184601F01AF818
:103F500003461B021C433B689B78184601F012F88D
:103F6000034644EA03023B68DB781B041343FB600F
:103F7000184BCA225A62174B53225A62FFF7C4FEEB
:103F80000346002B02D10023FB721BE0114AFB68A1
:103F900003F07F3323F0FE431360FFF7EFFE0D4B7A
:103FA0009B6803F02003002B0AD1FFF7F5FE0346C0
:103FB000002B02D10023FB7204E00123FB7201E01D
:103FC0000123FB72034BFF225A62FB7A1846143717
:103FD000BD4690BD0028004080B483B000AF78603B
:103FE0007B680022DA707B6800221A707B680022EE
:103FF0005A707B6800229A700C37BD465DF8047BCE
:10400000704700BF80B584B000AF7860396000238E
:10401000FB60224B1B6803F07F3323F0FE43FB6001
:10402000FB6803F47C131B0CDAB23B681A70FB6864
:1040300003F4FE431B0ADAB23B685A70FB68DBB23A
:1040400003F07F03DAB23B689A70FB6803F48003E5
:104050001B0CDAB23B68DA707B68002B1AD13B6824
:104060001B78184600F0ACFF03461A463B681A70EE
:104070003B685B78184600F0A3FF03461A463B688E
:104080005A703B689B78184600F09AFF03461A4620
:104090003B689A701037BD4680BD00BF00280040C5
:1040A00080B483B000AF00237B60064B9B6A7B60CB
:1040B000044B5B687B6818460C37BD465DF8047B93
:1040C000704700BF0028004090B585B000AF786011
:1040D00039600023FB600023FB727B68002B0ED14C
:1040E0003B685B7803F01003002B08D03B685B78DB
:1040F00023F01003DBB20A33DAB23B685A707B68F4
:10410000002B0DD03B685B78184600F059FF034642
:10411000FB603B689B78184600F052FF0346FB604B
:104120007B68002B0FD03B68DB781A043B685B7818
:104130001B0213433A6892781A433B681B785B036F
:104140001343FB601BE03B68DB78184600F01AFF66
:1041500003461C043B685B78184600F013FF0346D7
:104160001B021C433B689B78184600F00BFF03467C
:1041700044EA03023B681B785B031343FB60194B63
:10418000CA225A62174B53225A62FFF7BDFD0346FB
:10419000002B02D10023FB721BE0124AFB6823F0C4
:1041A0007F4323F0C0035360FFF7E8FD0D4B9B688E
:1041B00003F02003002B0AD1FFF7EEFD0346002B8E
:1041C00002D10023FB7204E00123FB7201E0012312
:1041D000FB72044BFF225A62FB7A18461437BD4625
:1041E00090BD00BF0028004080B483B000AF78606D
:1041F0007B6801221A707B6801229A707B68012219
:104200005A707B680022DA700C37BD465DF8047B7B
:10421000704700BF80B584B000AF7860396000237C
:10422000FB60224B5B6823F07F4323F0C003FB60FD
:10423000FB6803F47F031B0CDAB23B68DA70FB689F
:1042400003F4F8531B0ADAB23B685A70FB68DBB21E
:1042500003F03F03DAB23B689A70FB6803F46043F3
:104260005B0BDAB23B681A707B68002B1AD13B6893
:10427000DB78184600F0A4FE03461A463B68DA7065
:104280003B685B78184600F09BFE03461A463B6885
:104290005A703B689B78184600F092FE03461A4617
:1042A0003B689A701037BD4680BD00BF00280040B3
:1042B00090B587B000AFF860B9607A6000237B6189
:1042C000FB68002B09D1474B9B6803F04003002B90
:1042D00027D17B680022DA7023E0424B9B6803F011
:1042E0004003002B07D07B681B78184600F068FE5F
:1042F00003467B6102E07B680022DA707B689B6882
:10430000002B07D17B681B7B184600F059FE034643
:104310007B6106E07B681B7B184600F051FE03467C
:104320007B61FB68002B19D07B681B781A047B68C3
:104330005B781B0213437A6892781A437B68DB78B8
:104340001B041A437B681B7B1B061A437B689B6814
:104350001A437B685B6813437B612BE07B681B78A7
:10436000184600F00FFE03461C047B685B78184675
:1043700000F008FE03461B021C437B689B7818462E
:1043800000F000FE034644EA03027B68DB781B046E
:1043900042EA03047B681B7B184600F0F3FD0346EA
:1043A0001B0644EA03027B689B681A437B685B68D0
:1043B00013437B610B4BCA225A620A4B53225A6247
:1043C000BB68B3F5807F03D1064A7B69D36102E005
:1043D000044A7B691362034BFF225A621C37BD46B5
:1043E00090BD00BF0028004080B483B000AF78606B
:1043F0007B680022DA707B6800221A707B680022DA
:104400005A707B6800229A707B6800229A607B68F1
:1044100001221A737B6800225A600C37BD465DF892
:10442000047B704780B586B000AFF860B9607A60F1
:1044300000237B61BB68B3F5807F03D12E4BDB6922
:104440007B6102E02C4B1B6A7B617B6903F47C136C
:104450001B0CDAB27B681A707B6903F4FE431B0AFB
:10446000DAB27B685A707B69DBB203F07F03DAB2A1
:104470007B689A707B6903F480031B0CDAB27B685B
:10448000DA707B6903F07C531B0EDAB27B681A7317
:104490007B6903F080427B689A607B6903F080321D
:1044A0007B685A60FB68002B23D17B681B78184619
:1044B00000F086FD03461A467B681A707B685B78BD
:1044C000184600F07DFD03461A467B685A707B68EB
:1044D0009B78184600F074FD03461A467B689A7074
:1044E0007B681B7B184600F06BFD03461A467B6811
:1044F0001A731837BD4680BD0028004080B487B0CD
:1045000000AF78600B46FB700023FB6000233B612B
:104510000023FB751F4BCA225A621E4B53225A625C
:10452000FB78002B08D01B491A4B9A687B68134311
:104530008B600123FB7522E01649164B9A687B6855
:10454000DB4313408B60134BDA687B681B0A134014
:104550003B61FB680133FB60FB68B3F5005F02D091
:104560003B69002BEFD00B4BDA687B681B0A1340CA
:10457000002B02D10023FB7501E00123FB75054BE5
:10458000FF225A62FB7D18461C37BD465DF8047B4E
:10459000704700BF0028004080B487B000AFF860CB
:1045A000B9607A6000237B610E4BCA225A620D4BC0
:1045B00053225A62BA687B6813437B61FB68B3F588
:1045C000807F03D1074A7B69536402E0054A7B6917
:1045D0009364044BFF225A621C37BD465DF8047B8E
:1045E000704700BF0028004080B485B000AF7860FD
:1045F0000023FB607B68B3F5807F05D1084B5B6CC3
:10460000C3F30E03FB6004E0054B9B6CC3F30E0386
:10461000FB60FB6818461437BD465DF8047B7047A5
:104620000028004080B483B000AF78600C4BCA22F1
:104630005A620B4B53225A62094A094B9B6823F07A
:10464000070393600649064B9A687B6813438B60A7
:10465000034BFF225A620C37BD465DF8047B70475E
:104660000028004080B483B000AF7860084BCA22B5
:104670005A62074B53225A62054A7B685361044BC6
:10468000FF225A620C37BD465DF8047B704700BFBD
:104690000028004080B400AF034B5B699BB2184612
:1046A000BD465DF8047B70470028004080B487B0A9
:1046B00000AF0346FB710023FB6000233B61002336
:1046C000FB751E4BCA225A621C4B53225A62FB795D
:1046D000002B08D0194A194B9B6843F48063936000
:1046E0000123FB751FE0154A144B9B6823F480637C
:1046F0009360124BDB6803F004033B61FB680133FA
:10470000FB60FB68B3F5005F02D03B69002BF0D083
:104710000A4BDB6803F00403002B02D10023FB7576
:1047200001E00123FB75054BFF225A62FB7D184611
:104730001C37BD465DF8047B704700BF0028004071
:1047400080B483B000AF786039600E4BCA225A62E1
:104750000C4B53225A620B4A0A4B9B6823F480236A
:1047600093600848074B9A6879683B680B4313438A
:104770008360044BFF225A620C37BD465DF8047B10
:10478000704700BF0028004080B400AF044B9B6816
:1047900003F480231846BD465DF8047B704700BFD4
:1047A0000028004080B483B000AF786039600E4BC1
:1047B000CA225A620C4B53225A620B4A0A4B9B681C
:1047C00023F4E00393600848074B9A6879683B68D4
:1047D0000B4313438360044BFF225A620C37BD46E0
:1047E0005DF8047B704700BF0028004080B584B0AE
:1047F00000AF786039600023FB730F4BCA225A6206
:104800000D4B53225A62FFF77FFA0346002B02D169
:104810000023FB7308E008497A683B6813438B6107
:10482000FFF7ACFA0123FB73034BFF225A62FB7BB9
:1048300018461037BD4680BD0028004080B584B0C2
:1048400000AF0346FB710023FB73154BCA225A626B
:10485000134B53225A62FFF757FA0346002B02D13B
:104860000023FB7313E0FB79002B06D00C4A0C4BA2
:104870009B6843F08003936005E0094A084B9B68FE
:1048800023F080039360FFF779FA0123FB73044B55
:10489000FF225A62FB7B18461037BD4680BD00BF21
:1048A0000028004080B483B000AF0346FB710F4B7B
:1048B000CA225A620D4B53225A62FB79002B06D052
:1048C0000A4A0A4B9B6843F40003936005E0074AD9
:1048D000064B9B6823F400039360044BFF225A624B
:1048E0000C37BD465DF8047B704700BF00280040D0
:1048F00080B483B000AF78600C4BCA225A620B4B75
:1049000053225A62094A094B9B6823F4002393609F
:104910000649064B9A687B6813438B60034BFF2262
:104920005A620C37BD465DF8047B70470028004092
:1049300080B487B000AFF860B9607A600023FB757F
:1049400000233B611A4BCA225A62194B53225A6206
:10495000174BDB6803F48033002B0DD002E03B697A
:1049600001333B61124BDB6803F48033002B03D02F
:104970003B69B3F5805FF2D10D4BDB6803F4803304
:10498000002B09D10A49FA68BB681A437B681343B4
:10499000CB630123FB7501E00023FB75044BFF2271
:1049A0005A62FB7D18461C37BD465DF8047B704794
:1049B0000028004080B485B000AF78600B46FB70E3
:1049C0000023FB60124B9B6823F4006323F0080371
:1049D000FB60FB78002B06D07A68FB68134343F436
:1049E0000063FB6003E0FA687B681343FB60084BDD
:1049F000CA225A62064B53225A62054AFB689360E8
:104A0000034BFF225A621437BD465DF8047B7047A2
:104A10000028004080B586B000AFF860B9607A60C9
:104A200000237B6100233B613E4B1B6B03F07F3314
:104A300023F0FE437B613B4B5B6B23F07F4323F012
:104A4000C0033B617B6903F47C131B0CDAB2BB68C7
:104A50001A707B6903F4FE431B0ADAB2BB685A7012
:104A60007B69DBB203F07F03DAB2BB689A707B69C3
:104A700003F480031B0CDAB2BB68DA707B68002297
:104A8000DA703B6903F4F8531B0ADAB27B685A7098
:104A90003B69DBB203F03F03DAB27B689A703B6993
:104AA00003F460435B0BDAB27B681A70FB68002B7F
:104AB00035D1BB681B78184600F082FA03461A46C7
:104AC000BB681A70BB685B78184600F079FA034639
:104AD0001A46BB685A70BB689B78184600F070FA9B
:104AE00003461A46BB689A707B685B78184600F0EC
:104AF00067FA03461A467B685A707B689B781846AB
:104B000000F05EFA03461A467B689A707B681B7851
:104B1000184600F055FA03461A467B681A70183793
:104B2000BD4680BD0028004080B400AF034B9B6BA6
:104B30001846BD465DF8047B704700BF0028004062
:104B400080B483B000AF786039603B68002B08D137
:104B50000A490A4B1A6C7B685B00DB4313400B6409
:104B600006E00649054B1A6C7B685B0013430B6437
:104B70000C37BD465DF8047B704700BF002800403D
:104B800080B483B000AF78600B46FB70FB78002BDD
:104B900006D00949084B1A6C7B6813430B6406E086
:104BA0000549054B1A6C7B68DB4313400B640C37DB
:104BB000BD465DF8047B70470028004080B483B098
:104BC00000AF7860084A084B1B6C23F4C053136491
:104BD0000549054B1A6C7B6813430B640C37BD46C3
:104BE0005DF8047B704700BF0028004080B483B0AC
:104BF00000AF7860084A084B1B6C23F4E063136431
:104C00000549054B1A6C7B6813430B640C37BD4692
:104C10005DF8047B704700BF0028004080B483B07B
:104C200000AF7860084A084B1B6C23F4C043136440
:104C30000549054B1A6C7B6813430B640C37BD4662
:104C40005DF8047B704700BF0028004080B483B04B
:104C500000AF0346FB71FB79002B06D0084A084BD6
:104C60001B6C43F08003136405E0054A044B1B6C86
:104C700023F0800313640C37BD465DF8047B704756
:104C80000028004080B483B000AF0346FB71FB797D
:104C9000002B06D0084A084B1B6C23F40043136416
:104CA00005E0054A044B1B6C43F4004313640C37C6
:104CB000BD465DF8047B70470028004080B485B095
:104CC00000AF786039600023FB60084BFB607B68B5
:104CD0009A00FB681344FB60FB681A463B6813604C
:104CE0001437BD465DF8047B704700BF5028004074
:104CF00080B485B000AF78600023FB60074BFB6099
:104D00007B689A00FB681344FB60FB681B681846CD
:104D10001437BD465DF8047B704700BF5028004043
:104D200080B483B000AF7860084A084B1B6C23F452
:104D3000802313640549054B1A6C7B6813430B648D
:104D40000C37BD465DF8047B704700BF002800406B
:104D500080B584B000AF786039600023FB73002316
:104D6000BB60214BCA225A621F4B53225A621E4B10
:104D7000DB6803F00803002B0DD002E0BB680133B1
:104D8000BB60194BDB6803F00803002B03D0BB6842
:104D9000B3F5005FF2D1144BDB6803F00803002B7E
:104DA00018D1114B9B6803F01003002B0FD10E4953
:104DB0003A687B681343CB62FEF7EEFF0346002B95
:104DC00002D10023FB7307E00123FB7304E00023FF
:104DD000FB7301E00023FB73034BFF225A62FB7B52
:104DE00018461037BD4680BD0028004080B483B00F
:104DF00000AF78600B46FB70194BCA225A62184B01
:104E000053225A62FB78002B10D01549144B9A6834
:104E10007B6823F0040313438B601149104B1A6C19
:104E20007B6803F0040313430B6411E00C490C4B43
:104E30009A687B6823F00403DB4313408B600849C6
:104E4000074B1A6C7B6803F00403DB4313400B64CD
:104E5000034BFF225A620C37BD465DF8047B704756
:104E60000028004080B485B000AF78600023FB7359
:104E70000023BB600A4BDA680A4B1340BB60BA6878
:104E80007B681340002B02D00123FB7301E0002359
:104E9000FB73FB7B18461437BD465DF8047B7047F7
:104EA000002800407FFF010080B483B000AF78602D
:104EB00008497A68084B134043F08003DA43054BF6
:104EC000DB6803F080031343CB600C37BD465DF80D
:104ED000047B7047002800407FFF010080B487B04A
:104EE00000AF78600023FB7500233B610023FB606B
:104EF000154B1B6C03F004033B61134B9A687B68F2
:104F00001A407B689B0C19467B68CB40D90B3B69E8
:104F10000B401343FB600C4BDA687B681B091340A2
:104F20003B61FB68002B06D03B699BB2002B02D093
:104F30000123FB7501E00023FB75FB7D18461C3740
:104F4000BD465DF8047B70470028004080B485B002
:104F500000AF78600023FB607B681B09FB60084999
:104F6000FB689BB243F08003DA43054BDB6803F038
:104F700080031343CB601437BD465DF8047B704754
:104F80000028004080B485B000AF0346FB710023C9
:104F9000FB7305E0FB7B0133FB73FB790A3BFB7181
:104FA000FB79092BF6D8FB7B1B01DAB2FB791343A3
:104FB000DBB218461437BD465DF8047B704700BF6E
:104FC00080B485B000AF0346FB710023FB73FB790F
:104FD0001B09DBB21A46920013445B00FB73FB799A
:104FE00003F00F03DAB2FB7B1344DBB2184614372D
:104FF000BD465DF8047B704780B483B000AF786035
:105000007B687A681A607B687A685A607B681846A1
:105010000C37BD465DF8047B704700BF80B483B099
:1050200000AF786039607B681A683B681A603B683B
:105030001B683A685A607B683A681A603B687A680D
:105040005A607B6818460C37BD465DF8047B704794
:1050500080B586B000AFF860B9607A60FB681B6805
:105060007B617A69FB689A4205D1F868B968FFF7F5
:10507000D5FFFB681FE07B687869B96898470346ED
:10508000002B07DD7B695B681846B968FFF7C6FF30
:1050900078610FE07B691A68FB689A4203D07B69EC
:1050A0001B687B6105E07869B968FFF7B7FF786135
:1050B00000E0E0E7FB6818461837BD4680BD00BF3A
:1050C00080B483B000AF78607B685B687A681268F0
:1050D0001A607B681B687A6852685A607B68184659
:1050E0000C37BD465DF8047B704700BF80B586B0C5
:1050F00000AFF860B9607A60FB681B687B610CE008
:105100007B687869B968984738613B69002B01D1A1
:105110007B6907E07B691B687B617A69FB689A425F
:10512000EED1002318461837BD4680BD81F00041FE
:1051300002E000BF83F0004330B54FEA41044FEA7C
:10514000430594EA050F08BF90EA020F1FBF54EA17
:10515000000C55EA020C7FEA645C7FEA655C00F0B3
:10516000E2804FEA5454D4EB5555B8BF6D420CDD84
:105170002C4480EA020281EA030382EA000083EA07
:10518000010180EA020281EA0303362D88BF30BDA7
:1051900011F0004F4FEA01314FF4801C4CEA1131FD
:1051A00002D0404261EB410113F0004F4FEA03335C
:1051B0004CEA133302D0524263EB430394EA050FE7
:1051C00000F0A780A4F10104D5F1200E0DDB02FA56
:1051D0000EFC22FA05F2801841F1000103FA0EF2EA
:1051E000801843FA05F359410EE0A5F120050EF1B0
:1051F000200E012A03FA0EFC28BF4CF0020C43FAE1
:1052000005F3C01851EBE37101F0004507D54FF0ED
:10521000000EDCF1000C7EEB00006EEB0101B1F53D
:10522000801F1BD3B1F5001F0CD349085FEA300083
:105230004FEA3C0C04F101044FEA445212F5800F8E
:1052400080F09A80BCF1004F08BF5FEA500C50F12B
:10525000000041EB045141EA050130BD5FEA4C0C0E
:10526000404141EB010111F4801FA4F10104E9D197
:1052700091F0000F04BF01460020B1FA81F308BF8E
:105280002033A3F10B03B3F120020CDA0C3208DD5A
:1052900002F1140CC2F10C0201FA0CF021FA02F135
:1052A0000CE002F11402D8BFC2F1200C01FA02F1A5
:1052B00020FA0CFCDCBF41EA0C019040E41AA2BFCA
:1052C00001EB0451294330BD6FEA04041F3C1CDA92
:1052D0000C340EDC04F11404C4F1200220FA04F0B2
:1052E00001FA02F340EA030021FA04F345EA03015C
:1052F00030BDC4F10C04C4F1200220FA02F001FA1E
:1053000004F340EA0300294630BD21FA04F029469F
:1053100030BD94F0000F83F4801306BF81F4801138
:105320000134013D4EE77FEA645C18BF7FEA655CAB
:1053300029D094EA050F08BF90EA020F05D054EA7D
:10534000000C04BF1946104630BD91EA030F1EBF82
:105350000021002030BD5FEA545C05D14000494186
:1053600028BF41F0004130BD14F580043CBF01F579
:10537000801130BD01F0004545F0FE4141F470015F
:105380004FF0000030BD7FEA645C1ABF194610463A
:105390007FEA655C1CBF0B46024650EA013406BF3B
:1053A00052EA033591EA030F41F4002130BD00BFFA
:1053B00090F0000F04BF0021704730B54FF48064B7
:1053C00004F132044FF000054FF0000150E700BF38
:1053D00090F0000F04BF0021704730B54FF4806497
:1053E00004F1320410F0004548BF40424FF0000184
:1053F0003EE700BF42004FEAE2014FEA31014FEAC7
:1054000002701FBF12F07F4393F07F4F81F0605115
:10541000704792F0000F14BF93F07F4F704730B584
:105420004FF4607401F0004521F0004120E700BF17
:1054300050EA010208BF704730B54FF000050AE09E
:1054400050EA010208BF704730B511F0004502D59F
:10545000404261EB41014FF4806404F132045FEAA1
:10546000915C3FF4DCAE4FF003025FEADC0C18BF46
:1054700003325FEADC0C18BF033202EBDC02C2F13C
:10548000200300FA03FC20FA02F001FA03FE40EACE
:105490000E0021FA02F11444C1E600BF70B54FF0CE
:1054A000FF0C4CF4E06C1CEA11541DBF1CEA1355B0
:1054B00094EA0C0F95EA0C0F00F0DEF82C4481EA18
:1054C000030621EA4C5123EA4C5350EA013518BF38
:1054D00052EA033541F4801143F4801338D0A0FB25
:1054E00002CE4FF00005E1FB02E506F00042E0FBD2
:1054F00003E54FF00006E1FB03569CF0000F18BFD8
:105500004EF0010EA4F1FF04B6F5007F64F540747F
:1055100004D25FEA4E0E6D4146EB060642EAC62112
:1055200041EA55514FEAC52040EA5E504FEACE2E7F
:10553000B4F1FD0C88BFBCF5E06F1ED8BEF1004F82
:1055400008BF5FEA500E50F1000041EB045170BDFE
:1055500006F0004646EA010140EA020081EA030142
:10556000B4EB5C04C2BFD4EB0C0541EA045170BD3E
:1055700041F480114FF0000E013C00F3AB8014F1B8
:10558000360FDEBF002001F0004170BDC4F1000401
:10559000203C35DA0C341BDC04F11404C4F1200582
:1055A00000FA05F320FA04F001FA05F240EA0200DD
:1055B00001F0004221F0004110EBD37021FA04F613
:1055C00042EB06015EEA430E08BF20EAD37070BDCD
:1055D000C4F10C04C4F1200500FA04F320FA05F02C
:1055E00001FA04F240EA020001F0004110EBD3702E
:1055F00041F100015EEA430E08BF20EAD37070BD9E
:10560000C4F1200500FA05F24EEA020E20FA04F376
:1056100001FA05F243EA020321FA04F001F0004125
:1056200021FA04F220EA020000EBD3705EEA430E96
:1056300008BF20EAD37070BD94F0000F0FD101F0C5
:105640000046400041EB010111F4801F08BF013CFE
:10565000F7D041EA060195F0000F18BF704703F03C
:105660000046520043EB030313F4801F08BF013DC3
:10567000F7D043EA0603704794EA0C0F0CEA13557F
:1056800018BF95EA0C0F0CD050EA410618BF52EA39
:105690004306D1D181EA030101F000414FF000003F
:1056A00070BD50EA410606BF1046194652EA43064D
:1056B00019D094EA0C0F02D150EA013613D195EAC1
:1056C0000C0F05D152EA03361CBF104619460AD109
:1056D00081EA030101F0004141F0FE4141F4700113
:1056E0004FF0000070BD41F0FE4141F4780170BD03
:1056F00070B54FF0FF0C4CF4E06C1CEA11541DBF68
:105700001CEA135594EA0C0F95EA0C0F00F0A7F869
:10571000A4EB050481EA030E52EA03354FEA013196
:1057200000F088804FEA03334FF0805545EA1313A9
:1057300043EA12634FEA022245EA111545EA106571
:105740004FEA00260EF000419D4208BF964244F108
:10575000FD0404F5407402D25B084FEA3202B61A27
:1057600065EB03055B084FEA32024FF480104FF4FB
:10577000002CB6EB020E75EB030E22BFB61A75466F
:1057800040EA0C005B084FEA3202B6EB020E75EB02
:10579000030E22BFB61A754640EA5C005B084FEA6A
:1057A0003202B6EB020E75EB030E22BFB61A754637
:1057B00040EA9C005B084FEA3202B6EB020E75EB42
:1057C000030E22BFB61A754640EADC0055EA060E03
:1057D00018D04FEA051545EA16754FEA06164FEA46
:1057E000C30343EA52734FEAC2025FEA1C1CC0D1F2
:1057F00011F4801F0BD141EA00014FF000004FF07F
:10580000004CB6E711F4801F04BF01430020B4F13F
:10581000FD0C88BFBCF5E06F3FF6AFAEB5EB030CF7
:1058200004BFB6EB020C5FEA500C50F1000041EBF4
:10583000045170BD0EF0004E4EEA113114EB5C04C1
:10584000C2BFD4EB0C0541EA045170BD41F4801194
:105850004FF0000E013C90E645EA060E8DE60CEA9C
:10586000135594EA0C0F08BF95EA0C0F3FF43BAFB9
:1058700094EA0C0F0AD150EA01347FF434AF95EA70
:105880000C0F7FF425AF104619462CE795EA0C0F54
:1058900006D152EA03353FF4FDAE1046194622E721
:1058A00050EA410618BF52EA43067FF4C5AE50EAFB
:1058B00041047FF40DAF52EA43057FF4EBAE12E7EB
:1058C0004FEA4102B2F1E04324BFB3F5001CDCF122
:1058D000FE5C0DD901F0004C4FEAC0024CEA50705A
:1058E000B2F1004F40EB830008BF20F00100704789
:1058F00011F0804F21D113F13872BCBF01F000408C
:10590000704741F480114FEA5252C2F11802C2F1BD
:10591000200C10FA0CF320FA02F018BF40F001003E
:105920004FEAC1234FEAD32303FA0CFC40EA0C00F0
:1059300023FA02F34FEA4303CCE77FEA625307D12D
:1059400050EA01331EBF4FF0FE4040F44000704764
:1059500001F0004040F0FE4040F40000704700BFFE
:105960004FEA4002B2F1FE4F0FD34FF09E03B3EB6C
:1059700012620DD94FEA002343F0004310F0004FAC
:1059800023FA02F018BF404270474FF00000704702
:1059900012F1610F01D1420205D110F0004008BFA1
:1059A0006FF0004070474FF000007047024B014617
:1059B000186800F00BB800BFC8080020024B014671
:1059C000186800F091BC00BFC80800202DE9F04F16
:1059D00001F10B05162D83B0064627D935F00705D2
:1059E00000F1B680A94200F2B38000F071FAB5F57B
:1059F000FC7F22D2BC4FE80807EBC003DC689C4266
:105A000000F0BD816368E16823F0030323445A6812
:105A1000A56842F00102E96030468D605A6000F0EE
:105A200059FA0834204603B0BDE8F08F102900F27F
:105A30008F8000F04DFA1025DCE7680A00F08F80B7
:105A4000042800F24781A80938304100A64F07EB2F
:105A50008101CC68A14206D10CE0002A80F282804C
:105A6000E468A14206D0636823F003035A1B0F2A9F
:105A7000F3DD013801309C493C6901F1080E7445A1
:105A800000F07281636823F003035A1B0F2A00F3AE
:105A90005881002AC1F814E0C1F810E066DAB3F5C5
:105AA000007F80F02D81DB0801EBC3084FEAA30CD7
:105AB0004A68012303FA0CF3D8F808C01343C4F86A
:105AC00008C0C4F80C804B60C8F80840CCF80C4003
:105AD0008210012494409C4255D8234206D120F0E4
