:020000040800F2
:10000000180400207D020008D1020008D102000877
:10001000D1020008D1020008D1020008000000004F
:10002000000000000000000000000000D1020008F5
:10003000D102000800000000D1020008D10200082F
:100040007D0200087D0200087D0200087D02000894
:100050007D0200087D0200087D0200087D02000884
:100060007D0200087D0200087D0200087D02000874
:100070007D0200087D0200087D0200087D02000864
:100080007D0200087D0200087D0200087D02000854
:100090007D0200087D0200087D0200087D02000844
:1000A0007D0200087D0200087D0200087D02000834
:1000B0007D0200087D0200087D0200087D02000824
:1000C0007D0200087D0200087D0200087D02000814
:1000D0007D0200087D0200087D0200087D02000804
:1000E0007D0200087D0200087D0200087D020008F4
:1000F0007D02000880B487B000AF786039604FF0AF
:1001000000037B614FF000033B614FF00003FB6095
:100110004FF000037B618CE07B694FF0010202FA33
:1001200003F33B613B681A683B691340FB60FA6864
:100130003B699A4279D17B681A687B694FEA43032D
:100140004FF0030101FA03F36FEA03031A407B68DF
:100150001A607B681A683B681B7919467B694FEA0D
:10016000430301FA03F31A437B681A603B681B7967
:10017000012B03D03B681B79022B3AD17B689A682C
:100180007B694FEA43034FF0030101FA03F36FEA7F
:1001900003031A407B689A607B689A683B685B79C6
:1001A00019467B694FEA430301FA03F31A437B685C
:1001B0009A607B689B889AB27B699BB24FF0010181
:1001C00001FA03F39BB26FEA03039BB213409AB2A6
:1001D0007B689A807B689B889AB23B689B791946BA
:1001E0007B699BB201FA03F39BB213439AB27B681B
:1001F0009A807B68DA687B699BB24FEA43034FF0D1
:10020000030101FA03F36FEA03031A407B68DA6023
:100210007B68DA683B68DB7919467B694FEA430300
:1002200001FA03F31A437B68DA607B6903F1010387
:100230007B617B690F2B7FF66FAF07F11C07BD4613
:1002400080BC704780B483B000AF78600B467B8081
:100250007B687A881A8307F10C07BD4680BC70471B
:1002600080B483B000AF78600B467B807B687A886F
:100270005A8307F10C07BD4680BC704780B582B039
:1002800000AF40F6A023C0F600037B6040F20003FD
:10029000C2F200033B600BE07B681A683B681A609F
:1002A0003B6803F104033B607B6803F104037B605C
:1002B0003A6840F20003C2F200039A42ECD300F025
:1002C00035F800F0C5F907F10807BD4680BD00BF4D
:1002D00080B400AFFEE700BF80B483B000AF7860A9
:1002E0000B46FB70FB78002B0CD04FF46053C4F22C
:1002F00002034FF46052C4F20202D1697A680A43E1
:10030000DA610DE04FF46053C4F202034FF460521F
:10031000C4F20202D1697A686FEA02020A40DA6125
:1003200007F10C07BD4680BC704700BF80B500AF29
:100330004FF46053C4F202034FF46052C4F202025D
:10034000126842F480721A604FF46052C4F20202E2
:100350004FF46053C4F2020399684CF20C03C8F6E0
:10036000FF030B4093604FF46053C4F202034FF459
:100370006052C4F20202126822F0885222F0011286
:100380001A604FF46053C4F202034FF46052C4F297
:100390000202126822F480221A604FF46053C4F201
:1003A00002034FF46052C4F20202926822F47D020A
:1003B0009A604FF46053C4F202034FF00002DA6017
:1003C00000F008F84FF46D43CEF200034FF00062E6
:1003D0009A6080BD80B483B000AF4FF000037B60B3
:1003E0004FF000033B604FF46053C4F202034FF43C
:1003F0006052C4F20202126842F480321A604FF472
:100400006053C4F202031B6803F400333B607B6853
:1004100003F101037B603B68002B03D17B68B3F5DC
:10042000A06FECD14FF46053C4F202031B6803F4D5
:100430000033002B03D04FF001033B6002E04FF08C
:1004400000033B603B68012B40F0AF804FF47053DA
:10045000C4F202034FF47052C4F20202126842F076
:1004600004021A604FF47053C4F202034FF4705246
:10047000C4F20202126842F002021A604FF4705392
:10048000C4F202034FF47052C4F20202126842F046
:1004900001021A604FF46053C4F202034FF4605239
:1004A000C4F20202526A42F080525A624FF4E043B0
:1004B000C4F200034FF400621A6000BF4FF4E0433F
:1004C000C4F200035B6803F01003002BF6D14FF475
:1004D0006053C4F202034FF46052C4F20202926805
:1004E0009A604FF46053C4F202034FF46052C4F2B6
:1004F000020292689A604FF46053C4F202034FF410
:100500006052C4F2020292689A604FF46053C4F2DF
:1005100002034FF46052C4F20202926822F47D0298
:100520009A604FF46053C4F202034FF46052C4F275
:100530000202926842F411029A604FF46053C4F2CE
:1005400002034FF46052C4F20202126842F0807259
:100550001A6000BF4FF46053C4F202031B6803F03B
:100560000073002BF6D04FF46053C4F202034FF433
:100570006052C4F20202926822F003029A604FF4C1
:100580006053C4F202034FF46052C4F20202926854
:1005900042F003029A6000BF4FF46053C4F20203BA
:1005A0009B6803F00C030C2BF6D107F10C07BD463A
:1005B00080BC704780B590B000AFF860B9607A60D9
:1005C0004FF080704FF00101FFF786FE46F26C009D
:1005D000C4F2020000F0BCF8BB687B61FB68BB6141
:1005E0004FF01003FB617B683B624FF040037B627E
:1005F0004FF00003BB624FF40073FB624FF40063E3
:100600003B634FF000037B634FF40053BB634FF435
:100610008043FB6307F1140346F26C00C4F202004E
:10062000194600F0A5F946F26C00C4F202004FF042
:10063000010100F0DDF900BF4FF4001000F0F4F903
:100640000346002BF8D007F14007BD4680BD00BF30
:1006500080B582B000AF4FF000033B6040F214025F
:10066000C2F2000240F20003C2F20003D31A4FEAC2
:10067000A3037B6000F034F83B46184640F20001CB
:10068000C2F200017A68FFF795FF40F20803C2F258
:1006900000031A6840F21003C2F200031B68D2186C
:1006A00040F20C03C2F200031A6040F21003C2F2DF
:1006B00000031A6840F20C03C2F200031B68D21850
:1006C00040F20403C2F200031A604FF4001000F07D
:1006D000ABF90346012B01D100F02EF8FEE700BF75
:1006E00080B582B000AF4FF002004FF00101FFF77C
:1006F000F3FD4FF001033B714FF00003BB714FF06E
:10070000C0033B604FF00103FB714FF003037B71AB
:100710003B464FF48060C4F202001946FFF7EAFC42
:100720004FF48060C4F202004FF04001FFF798FDE3
:1007300007F10807BD4680BD80B500AF4FF480606B
:10074000C4F202004FF04001FFF77CFD80BD00BF06
:1007500080B483B000AF78607B681A684FF6FE7390
:1007600013407A6813607B684FF000021A607B6860
:100770004FF000025A607B684FF000029A607B687D
:100780004FF00002DA607A6846F20803C4F202030E
:100790009A420CD14FF4C043C4F202034FF4C0425A
:1007A000C4F20202526842F00F025A60DAE07A683C
:1007B00046F21C03C4F202039A420CD14FF4C04328
:1007C000C4F202034FF4C042C4F20202526842F083
:1007D000F0025A60C6E07A6846F23003C4F20203BF
:1007E0009A420CD14FF4C043C4F202034FF4C0420A
:1007F000C4F20202526842F470625A60B2E07A684F
:1008000046F24403C4F202039A420CD14FF4C043AF
:10081000C4F202034FF4C042C4F20202526842F42E
:1008200070425A609EE07A6846F25803C4F20203AE
:100830009A420CD14FF4C043C4F202034FF4C042B9
:10084000C4F20202526842F470225A608AE07A6866
:1008500046F26C03C4F202039A420CD14FF4C04337
:10086000C4F202034FF4C042C4F20202526842F4DE
:1008700070025A6076E07A684FF4C143C4F2020312
:100880009A420CD14FF4C043C4F202034FF4C04269
:10089000C4F20202526842F070625A6062E07A6802
:1008A00046F20843C4F202039A420CD14FF4C84303
:1008B000C4F202034FF4C842C4F20202526842F08A
:1008C0000F025A604EE07A6846F21C43C4F20203FB
:1008D0009A420CD14FF4C843C4F202034FF4C84209
:1008E000C4F20202526842F0F0025A603AE07A68BA
:1008F00046F23043C4F202039A420CD14FF4C8438B
:10090000C4F202034FF4C842C4F20202526842F435
:1009100070625A6026E07A6846F24443C4F20203E9
:100920009A420CD14FF4C843C4F202034FF4C842B8
:10093000C4F20202526842F470425A6012E07A68CD
:1009400046F25843C4F202039A420BD14FF4C84313
:10095000C4F202034FF4C842C4F20202526842F4E5
:1009600070225A6007F10C07BD4680BC704700BF7B
:1009700080B485B000AF786039604FF00003FB6051
:100980007B681B68FB60FB6823F4FF4323F0700364
:10099000FB603B689A683B681B6A1A433B681B69AB
:1009A0001A433B685B691A433B689B691A433B687F
:1009B000DB691A433B685B6A1A433B689B6A1343D3
:1009C000FA681343FB607B68FA681A603B68DA6870
:1009D0007B685A603B681A687B689A603B685A6813
:1009E0007B68DA6007F11407BD4680BC704700BF22
:1009F00080B483B000AF78600B46FB70FB78002BAF
:100A000006D07B681B6843F001027B681A6006E031
:100A10007B681A684FF6FE7313407A68136007F11B
:100A20000C07BD4680BC704780B485B000AF7860CD
:100A30004FF00003FB734FF00003BB6040F2000374
:100A4000C2F200031B6803F1010240F20003C2F28C
:100A500000031A607B6803F08053002B06D14FF42B
:100A6000C043C4F202031B68BB6005E04FF4C843F7
:100A7000C4F202031B68BB60BA687B681340002B9A
:100A800003D04FF00103FB7302E04FF00003FB7350
:100A9000FB7B184607F11407BD4680BC704700BFBA
:0400000508000000EF
:00000001FF
