:020000040800F2
:1000000068040020ED020008E1100008ED1000086F
:10001000F5100008FD1000080511000800000000A0
:100020000000000000000000000000000D110008AA
:100030001911000800000000251100083111000806
:10004000ED020008ED020008ED020008ED020008D4
:10005000ED020008ED020008ED020008ED020008C4
:10006000ED020008ED020008ED020008ED020008B4
:10007000ED020008ED0200083D11000869110008BA
:10008000ED020008ED020008ED020008ED02000894
:10009000ED020008ED020008ED020008ED02000884
:1000A000ED020008ED020008ED020008ED02000874
:1000B000ED020008ED020008ED020008ED02000864
:1000C000ED020008ED020008ED020008ED02000854
:1000D000ED020008ED020008ED020008ED02000844
:1000E000ED020008ED020008ED020008ED02000834
:1000F000ED02000880B487B000AF786039604FF03F
:1001000000037B614FF000033B614FF00003FB6095
:100110004FF000037B618CE07B694FF0010202FA33
:1001200003F33B613B681A683B691340FB60FA6864
:100130003B699A4279D17B681A687B694FEA43032D
:100140004FF0030101FA03F36FEA03031A407B68DF
:100150001A607B681A683B681B7919467B694FEA0D
:10016000430301FA03F31A437B681A603B681B7967
:10017000012B03D03B681B79022B3AD17B689A682C
:100180007B694FEA43034FF0030101FA03F36FEA7F
:1001900003031A407B689A607B689A683B685B79C6
:1001A00019467B694FEA430301FA03F31A437B685C
:1001B0009A607B689B889AB27B699BB24FF0010181
:1001C00001FA03F39BB26FEA03039BB213409AB2A6
:1001D0007B689A807B689B889AB23B689B791946BA
:1001E0007B699BB201FA03F39BB213439AB27B681B
:1001F0009A807B68DA687B699BB24FEA43034FF0D1
:10020000030101FA03F36FEA03031A407B68DA6023
:100210007B68DA683B68DB7919467B694FEA430300
:1002200001FA03F31A437B68DA607B6903F1010387
:100230007B617B690F2B7FF66FAF07F11C07BD4613
:1002400080BC704780B485B000AF786013460A4622
:100250007A807B704FF00003FB604FF00003BB60BF
:100260007A787B8803F007034FEA830302FA03F3EB
:10027000FB607B884FEAD3039BB21A467B884FEA28
:10028000D3039BB219467B6801F1080153F8211092
:100290007B8803F007034FEA83034FF00F0000FA57
:1002A00003F36FEA030319407B6802F1080243F885
:1002B00022107B884FEAD3039BB21A467B6802F177
:1002C000080253F82220FB681343BB607B884FEA87
:1002D000D3039BB21A467B6802F10802B96843F85F
:1002E000221007F11407BD4680BC704780B582B06C
:1002F00000AF41F27823C0F600037B6040F20003B8
:10030000C2F200033B600BE07B681A683B681A602E
:100310003B6803F104033B607B6803F104037B60EB
:100320003A6840F21C03C2F200039A42ECD340F256
:100330001C03C2F200033B6007E03B684FF0000281
:100340001A603B6803F104033B603A6840F26403BF
:10035000C2F200039A42F0D300F070F900F0B2FA52
:1003600007F10807BD4680BD80B489B000AF786052
:100370004FF00003FB614FF00003BB614FF000033F
:100380007B614FF000033B614FF00003FB604FF0D7
:100390000003BB604FF46053C4F202039B6803F098
:1003A0000C03FB61FB690C2B00F2868001A252F862
:1003B00023F000BFE9030008B9040008B9040008ED
:1003C000B904000813040008B9040008B9040008BF
:1003D000B904000821040008B9040008B9040008A1
:1003E000B90400082F0400084FF46053C4F202035C
:1003F0005B6803F460434FEA5333BB60BB6803F1AF
:1004000001034FF4004202FA03F31A467B681A60B4
:1004100067E07A684FF41053C0F2F403136060E0B1
:100420007A684FF49053C0F27A03136059E04FF4A6
:100430006053C4F202039B6803F47013BB614FF472
:100440006053C4F202039B6803F440037B61BB6901
:100450004FEA934240F20003C2F200039B5CDBB21E
:10046000BB617B694FEA935303F101037B614FF456
:100470006053C4F202039B6803F480333B613B6921
:10048000002B0CD1BA694FF41053C0F2F40303FBF4
:1004900002F27B69B2FBF3F27B681A6021E0BA6971
:1004A0004FF49053C0F27A0303FB02F27B69B2FB74
:1004B000F3F27B681A6014E04FF46053C4F2020355
:1004C0005B6803F460434FEA5333BB60BB6803F1DE
:1004D00001034FF4004202FA03F31A467B681A60E4
:1004E00000BF4FF46053C4F202039B6803F0F003B3
:1004F000FB61FB694FEA1313FB6140F20C03C2F28C
:100500000003FA699B181B78DBB2FB607B681A68F2
:10051000FB6822FA03F27B685A604FF46053C4F21E
:1005200002039B6803F4E063FB61FB694FEA13235A
:10053000FB6140F20C03C2F20003FA699B181B78BE
:10054000DBB2FB607B685A68FB6822FA03F27B68C7
:100550009A604FF46053C4F202039B6803F4605343
:10056000FB61FB694FEAD323FB6140F20C03C2F24B
:100570000003FA699B181B78DBB2FB607B685A6842
:10058000FB6822FA03F27B68DA6007F12407BD46B4
:1005900080BC704780B483B000AF78600B46FB70BE
:1005A000FB78002B0CD04FF46053C4F202034FF4DD
:1005B0006052C4F20202D1697A680A43DA610DE03E
:1005C0004FF46053C4F202034FF46052C4F20202CB
:1005D000D1697A686FEA02020A40DA6107F10C0712
:1005E000BD4680BC704700BF80B483B000AF786068
:1005F0000B46FB70FB78002B0CD04FF46053C4F219
:1006000002034FF46052C4F20202116A7A680A438C
:100610001A620DE04FF46053C4F202034FF46052CB
:10062000C4F20202116A7A686FEA02020A401A6290
:1006300007F10C07BD4680BC704700BF80B500AF16
:100640004FF46053C4F202034FF46052C4F202024A
:10065000126842F480721A604FF46052C4F20202CF
:100660004FF46053C4F2020399684CF20C03C8F6CD
:10067000FF030B4093604FF46053C4F202034FF446
:100680006052C4F20202126822F0885222F0011273
:100690001A604FF46053C4F202034FF46052C4F284
:1006A0000202126822F480221A604FF46053C4F2EE
:1006B00002034FF46052C4F20202926822F47D02F7
:1006C0009A604FF46053C4F202034FF00002DA6004
:1006D00000F008F84FF46D43CEF200034FF00062D3
:1006E0009A6080BD80B483B000AF4FF000037B60A0
:1006F0004FF000033B604FF46053C4F202034FF429
:100700006052C4F20202126842F480321A604FF45E
:100710006053C4F202031B6803F400333B607B6840
:1007200003F101037B603B68002B03D17B68B3F5C9
:10073000A06FECD14FF46053C4F202031B6803F4C2
:100740000033002B03D04FF001033B6002E04FF079
:1007500000033B603B68012B40F0AF804FF47053C7
:10076000C4F202034FF47052C4F20202126842F063
:1007700004021A604FF47053C4F202034FF4705233
:10078000C4F20202126842F002021A604FF470537F
:10079000C4F202034FF47052C4F20202126842F033
:1007A00001021A604FF46053C4F202034FF4605226
:1007B000C4F20202526A42F080525A624FF4E0439D
:1007C000C4F200034FF400621A6000BF4FF4E0432C
:1007D000C4F200035B6803F01003002BF6D14FF462
:1007E0006053C4F202034FF46052C4F202029268F2
:1007F0009A604FF46053C4F202034FF46052C4F2A3
:10080000020292689A604FF46053C4F202034FF4FC
:100810006052C4F2020292689A604FF46053C4F2CC
:1008200002034FF46052C4F20202926822F47D0285
:100830009A604FF46053C4F202034FF46052C4F262
:100840000202926842F411029A604FF46053C4F2BB
:1008500002034FF46052C4F20202126842F0807246
:100860001A6000BF4FF46053C4F202031B6803F028
:100870000073002BF6D04FF46053C4F202034FF420
:100880006052C4F20202926822F003029A604FF4AE
:100890006053C4F202034FF46052C4F20202926841
:1008A00042F003029A6000BF4FF46053C4F20203A7
:1008B0009B6803F00C030C2BF6D107F10C07BD4627
:1008C00080BC704780B582B000AF40F22403C2F212
:1008D00000034FF000021A604FF014037B6000BF6A
:1008E0007B68DBB203F16103DAB240F25003C2F27B
:1008F000000379685B181A7040F25003C2F20003DB
:100900007A689B181B78612B0CBF00230123DBB294
:100910007A6802F1FF327A60002BE1D14FF4804017
:100920004FF00101FFF760FE4FF001004FF00101B1
:10093000FFF730FE4FF080704FF00101FFF72AFE05
:100940004FF4165000F03AF846F24400C4F20200A8
:100950004FF002014FF0010200F044FA4FF0100096
:1009600040F25001C2F200014FF0140200F092F880
:100970004FF46050C4F201004FF080014FF00102CB
:1009800000F08AFB46F24400C4F202004FF001017D
:1009900000F00CFA00F062F84FF46050C4F201006D
:1009A0004FF0010100F058FB00BF4FF4005000F081
:1009B00037FA0346002BF8D0FEE700BF80B588B0B9
:1009C00000AF78604FF00000C4F202004FF0090160
:1009D0004FF00702FFF736FC4FF00000C4F20200B0
:1009E0004FF00A014FF00702FFF72CFC4FF0020313
:1009F0003B774FF4C063BB614FF003037B774FF04D
:100A00000003BB774FF00103FB7707F118034FF0AA
:100A10000000C4F202001946FFF76CFB4FF00C0314
:100A20007B824FF000033B824FF41653BB604FF0C4
:100A30000003FB814FF00003BB814FF00003BB823A
:100A400007F108034FF46050C4F20100194600F0AA
:100A500033FA07F12007BD4680BD00BF80B582B0E4
:100A600000AF4FF00E033B714FF000037B714FF06E
:100A70000003BB714FF00103FB7107F1040318463B
:100A800000F088FB4FF00003184607F10807BD4649
:100A900080BD00BF80B590B000AFF860B9607A60EB
:100AA00046F24403C4F20203FB63F86B00F02EF835
:100AB00043F60403C4F201033B61BB687B61FB683E
:100AC000BB617B68FB614FF000033B624FF080032A
:100AD0007B624FF00003BB624FF00003FB624FF0FC
:100AE00000033B634FF400537B634FF00003BB6391
:100AF00007F11003F86B194600F018F94FF00003E6
:100B0000184607F14007BD4680BD00BF80B483B0E2
:100B100000AF78607B681A684FF6FE7313407A68FE
:100B200013607B684FF000021A607B684FF0000290
:100B30005A607B684FF000029A607B684FF00002B9
:100B4000DA607A6846F20803C4F202039A420CD1D2
:100B50004FF4C043C4F202034FF4C042C4F2020295
:100B6000526842F00F025A60DAE07A6846F21C03DB
:100B7000C4F202039A420CD14FF4C043C4F2020300
:100B80004FF4C042C4F20202526842F0F0025A60CE
:100B9000C6E07A6846F23003C4F202039A420CD1EE
:100BA0004FF4C043C4F202034FF4C042C4F2020245
:100BB000526842F470625A60B2E07A6846F24403C6
:100BC000C4F202039A420CD14FF4C043C4F20203B0
:100BD0004FF4C042C4F20202526842F470425A60BA
:100BE0009EE07A6846F25803C4F202039A420CD19E
:100BF0004FF4C043C4F202034FF4C042C4F20202F5
:100C0000526842F470225A608AE07A6846F26C03B5
:100C1000C4F202039A420CD14FF4C043C4F202035F
:100C20004FF4C042C4F20202526842F470025A60A9
:100C300076E07A684FF4C143C4F202039A420CD1C1
:100C40004FF4C043C4F202034FF4C042C4F20202A4
:100C5000526842F070625A6062E07A6846F2084375
:100C6000C4F202039A420CD14FF4C843C4F2020307
:100C70004FF4C842C4F20202526842F00F025A60B6
:100C80004EE07A6846F21C43C4F202039A420CD149
:100C90004FF4C843C4F202034FF4C842C4F2020244
:100CA000526842F0F0025A603AE07A6846F2304305
:100CB000C4F202039A420CD14FF4C843C4F20203B7
:100CC0004FF4C842C4F20202526842F470625A60A1
:100CD00026E07A6846F24443C4F202039A420CD1F9
:100CE0004FF4C843C4F202034FF4C842C4F20202F4
:100CF000526842F470425A6012E07A6846F25843F1
:100D0000C4F202039A420BD14FF4C843C4F2020367
:100D10004FF4C842C4F20202526842F470225A6090
:100D200007F10C07BD4680BC704700BF80B485B09A
:100D300000AF786039604FF00003FB607B681B6890
:100D4000FB60FB6823F4FF4323F07003FB603B6808
:100D50009A683B681B6A1A433B681B691A433B68E5
:100D60005B691A433B689B691A433B68DB691A431A
:100D70003B685B6A1A433B689B6A1343FA681343F8
:100D8000FB607B68FA681A603B68DA687B685A60C7
:100D90003B681A687B689A603B685A687B68DA60CF
:100DA00007F11407BD4680BC704700BF80B483B014
:100DB00000AF78600B46FB70FB78002B06D07B6899
:100DC0001B6843F001027B681A6006E07B681A68C2
:100DD0004FF6FE7313407A68136007F10C07BD46A7
:100DE00080BC704780B485B000AFF860B96013462E
:100DF000FB71FB79002B06D0FB681A68BB681A43AD
:100E0000FB681A6007E0FB681A68BB686FEA0303B7
:100E10001A40FB681A6007F11407BD4680BC704792
:100E200080B485B000AF78604FF00003FB734FF0E3
:100E30000003BB607B6803F08053002B06D14FF4A6
:100E4000C043C4F202031B68BB6005E04FF4C84313
:100E5000C4F202031B68BB60BA687B681340002BB6
:100E600003D04FF00103FB7302E04FF00003FB736C
:100E7000FB7B184607F11407BD4680BC704700BFD6
:100E800080B483B000AF78607B6803F08053002BA0
:100E900006D14FF4C043C4F202037A685A6005E0F9
:100EA0004FF4C843C4F202037A685A6007F10C0792
:100EB000BD4680BC704700BF80B58AB000AF786087
:100EC00039604FF000037B624FF000033B624FF04C
:100ED0000003FB614FF00003BB617B681B8A9BB280
:100EE0007B627B6A23F440537B623B68DB887A6ACF
:100EF00013437B627B6A9AB27B681A827B689B8908
:100F00009BB27B627B6A23F4B05323F00C037B62B9
:100F10003B689A883B681B8913439AB23B685B899C
:100F200013439BB27A6A13437B627B6A9AB27B68F3
:100F30009A817B689B8A9BB27B627B6A23F44073B5
:100F40007B623B689B897A6A13437B627B6A9AB2B5
:100F50007B689A8207F108031846FFF705FA7A685A
:100F60004FF46053C4F201039A4202D17B693B62A1
:100F700001E03B693B627B689B899BB29BB21BB2E1
:100F8000002B0FDA3A6A13464FEA83039B184FEAA5
:100F900083029A183B681B684FEA4303B2FBF3F3E2
:100FA000FB610EE03A6A13464FEA83039B184FEA4F
:100FB00083029A183B681B684FEA8303B2FBF3F382
:100FC000FB61FA6948F21F53C5F2EB13A3FB02134E
:100FD0004FEA53134FEA03137B627B6A4FEA131302
:100FE0004FF0640202FB03F3FA69D31ABB617B681A
:100FF0009B899BB29BB21BB2002B12DABB694FEAF2
:10100000C30303F1320248F21F53C5F2EB13A3FBF3
:1010100002134FEA531303F007037A6A13437B6208
:1010200011E0BB694FEA031303F1320248F21F5388
:10103000C5F2EB13A3FB02134FEA531303F00F03A4
:101040007A6A13437B627B6A9AB27B681A8107F1E2
:101050002807BD4680BD00BF80B483B000AF786074
:101060000B46FB70FB78002B08D07B689B899BB2FA
:1010700043F400539AB27B689A8107E07B689B89AE
:101080009BB223F400539AB27B689A8107F10C0754
:10109000BD4680BC704700BF80B483B000AF7860AD
:1010A00013460A467A807B707B78002B08D07B68D9
:1010B0009B8A9AB27B8813439AB27B689A820AE031
:1010C0007B689B8A9AB27B886FEA03039BB21340CA
:1010D0009AB27B689A8207F10C07BD4680BC7047C4
:1010E00080B400AFBD4680BC704700BF80B400AF85
:1010F000FEE700BF80B400AFFEE700BF80B400AFE2
:10110000FEE700BF80B400AFFEE700BF80B400AFD1
:10111000BD4680BC704700BF80B400AFBD4680BCF8
:10112000704700BF80B400AFBD4680BC704700BFB1
:1011300080B400AFBD4680BC704700BF80B500AF33
:101140004FF40050FFF76CFE0346002B0AD040F22C
:101150001C03C2F200034FF001021A604FF48050EA
:10116000FFF78EFE80BD00BF80B500AF4FF40030AA
:10117000FFF756FE0346002B0AD040F22003C2F2CE
:1011800000034FF001021A604FF48030FFF778FE41
:1011900080BD00BF80B485B000AF78604FF0000321
:1011A000FB734FF00003BB734FF00F037B737B683F
:1011B000DB78002B45D04FF46D43CEF20003DB68A3
:1011C0006FEA030303F4E0634FEA1323FB73FB7B33
:1011D000C3F10403BB737A7BFB7B42FA03F37B739B
:1011E0007B685B781A46BB7B02FA03F3FB737B6870
:1011F0009A787B7B1340DAB2FB7B1343FB73FB7B58
:101200004FEA0313FB734FF46143CEF200037A6895
:1012100012789B18FA7B83F800234FF46143CEF2D7
:1012200000037A6812784FEA5212D2B279680978CC
:1012300001F01F014FF0010000FA01F143F8221004
:1012400014E04FF46143CEF200037A6812784FEA5B
:101250005212D2B27968097801F01F014FF00100F3
:1012600000FA01F102F1200243F8221007F11407FD
:08127000BD4680BC704700BFC1
:10127800030406080C1018203000000000000000CD
:0C12880001020304010203040607080928
:0400000508000000EF
:00000001FF
